:020000040000FA
:10000000803102288731D42F0034403414345434E2
:100010002000AB002100521C0E280F2818282000B9
:100020002B08FC007C08F80024088A31EF2280317C
:100030002000A61B1C281D2822282608AA00250807
:10004000A9002428A901AA01A701A8013828203065
:10005000F0000030F10020002B08FC007C08F200CA
:100060008D316025803101302000A7070030A83D88
:100070002808803AFC002A08803A7C02031D4228A6
:1000800029082702031C4528462827282100521842
:100090004A284B28542820002B08FC007C08F80034
:1000A00024088A31EF228031200024088A3132224C
:1000B0008031200029087007A4002A08713DA5009E
:1000C00008002000AB01AC01A401A5016B280130A0
:1000D000FA070030FB3DAA01AA0A7A0884007B08CF
:1000E00085001200203A0319762877288C287A0890
:1000F00084007B0885000008F73EA000FF3003184D
:100100000030A10000302102053003192002031C39
:100110008A288B288C28AA012A08A000A10120087F
:10012000A6002108A70026082704031D982899285F
:100130006728A3280130A4000030A5000130FA0789
:100140000030FB3DD7287A0884007B088500000832
:10015000A000A1012108003A0319AF28D7282008E0
:100160002B3A03199E28063A03199A28D7287A08A9
:1001700084007B0885000008A0002C08F5002B08EF
:10018000F4000A30F6000030F7008A31692280312D
:1001900075082000A20020087402A100031CA2031D
:1001A0002108303EAB000030223DAC009E287A088A
:1001B00084007B0885000008D03EA000FF300318B3
:1001C0000030A100003021020A3003192002031C74
:1001D000EA28EC280130ED280030A200A301220813
:1001E000A8002308A90028082904031DF828F928D5
:1001F000B72824082504031DFE28FF280B292B09F6
:10020000A0002C09A100A00A0319A10A2008FA00E5
:100210002108FB000F292C08FB002B08FA0008001E
:1002200089314E218131243024008D002100951325
:10023000133024009A0028309D009E019C018231D9
:10024000D4228131893178218131F80100308B311C
:100250004123813115302100BE003E08C600023026
:10026000BE003E08C7001530BE003E08C800123070
:10027000BE003E08C9000630BE003E08CA00CB01E1
:10028000D401D501C6308E3114268131C6308C316F
:10029000752481311A302100BE00F830890B4E29B7
:1002A000BE0B4E29000021004908BE003E08FA009E
:1002B0004A08BF003F08FB00C3308F3168278131F7
:1002C00021004408BE003E08FA004508BF003F0870
:1002D000FB00C0308F316827813121004B08031D9E
:1002E0007229732983294308B1004408B2004508E4
:1002F000B3004008B4004108B5004208B6008E3192
:100300007426813146291E304B06031D8829892910
:10031000A729C630860000308700B1308400003045
:100320008500403F803F413F813F423F823F433F06
:10033000833F443F843F453F853F4308B70044081F
:10034000B8004508B9008E31D826813146292D30B4
:100350004B06031DAC29AD294629C6308600003066
:1003600087002030840000308500403F803F413FBF
:10037000813F423F823F433F833F443F843F453F6D
:10038000853F8C3132248131200021082100D500A5
:10039000200020082100D400C630860000308700ED
:1003A000B130840000308500403F803F413F813FB5
:1003B000423F823F433F833F443F843F453F853F29
:1003C0005508B8005408B7008C31BB248131462948
:1003D00080310228F2012830860000308700473F34
:1003E000F000F01FF429F529162A2000A809A90910
:1003F000AA09AB09AC09AD09AE09AF09A80A031DEA
:10040000142AA90A031D142AAA0A031D142AAB0AD6
:10041000031D142AAC0A031D142AAD0A031D142A55
:10042000AE0A031D142AAF0AF201F20A2030860038
:1004300000308700473FF000F01F1F2A202A3F2A84
:100440002000A009A109A209A309A409A509A609D8
:10045000A709A00A031D3F2AA10A031D3F2AA20AD9
:10046000031D3F2AA30A031D3F2AA40A031D3F2A96
:10047000A50A031D3F2AA60A031D3F2AA70A20003A
:10048000200821042204230424042504260427042C
:1004900003194B2A4C2A9F2AF101F10A5B2AA03545
:1004A000A10DA20DA30DA40DA50DA60DA70D013044
:1004B000F0007008F107A71F5E2A5F2A4F2A27085D
:1004C0002F02031D7D2A26082E02031D7D2A2508E2
:1004D0002D02031D7D2A24082C02031D7D2A2308DA
:1004E0002B02031D7D2A22082A02031D7D2A2108D2
:1004F0002902031D7D2A20082802031C802A812A44
:10050000912A2008A8022108A93B2208AA3B230817
:10051000AB3B2408AC3B2508AD3B2608AE3B270887
:10052000AF3BA736A60CA50CA40CA30CA20CA10CE7
:10053000A00C0130F102031D9E2A9F2A5F2A720837
:100540000319A32AA42AC22AA809A909AA09AB093E
:10055000AC09AD09AE09AF09A80A031DC22AA90A50
:10056000031DC22AAA0A031DC22AAB0A031DC22AFE
:10057000AC0A031DC22AAD0A031DC22AAE0A031D1E
:10058000C22AAF0A20002808A0002908A1002A08D2
:10059000A2002B08A3002C08A4002D08A5002E08FB
:1005A000A6002F08A70008000530F3000F30F20066
:1005B000F130890BD92AF20BD92AF30BD92A000082
:1005C000303089319621823134308931962182311F
:1005D00030308931962182310D30F200FC30890BA8
:1005E000EF2AF20BEF2A30308931962182313430F4
:1005F00089319621823130308931962182310D3016
:10060000F200FC30890B022BF20B022B30308931C7
:1006100096218231343089319621823130308931CE
:1006200096218231C830890B132B203089319621D5
:1006300082312430893196218231203089319621CE
:1006400082310630890B222B0032203089319621ED
:1006500082312430893196218231203089319621AE
:1006600082314230890B322B003280308931962121
:1006700082318430893196218231803089319621CE
:1006800082310030893196218231043089319621BE
:10069000823100308931962182314230890B4E2BD4
:1006A0000032C030893196218231C430893196219F
:1006B0008231C030893196218231003089319621D2
:1006C000823104308931962182310030893196217E
:1006D00082314230890B6A2B0032103089319621E9
:1006E000823114308931962182311030893196213E
:1006F00082310D30F200FC30890B7C2BF20B7C2B0D
:10070000003089319621823104308931962182313D
:1007100000308931962182314230890B8D2B003295
:10072000603089319621823164308931962182315D
:1007300060308931962182310030893196218231B1
:1007400004308931962182310030893196218231FD
:100750004230890BA92B0032203089319621823119
:10076000243089319621823120308931962182319D
:100770000830F200CA30890BBB2BF20BBB2B0800F0
:10078000F2012030860000308700473FF000F01F64
:10079000CA2BCB2BEC2B2000A009A109A209A3098D
:1007A000A409A509A609A709A00A031DEA2BA10A05
:1007B000031DEA2BA20A031DEA2BA30A031DEA2B41
:1007C000A40A031DEA2BA50A031DEA2BA60A031D92
:1007D000EA2BA70AF201F20A2830860000308700CF
:1007E000473FF000F01FF52BF62B192C2000A8092D
:1007F000A909AA09AB09AC09AD09AE09AF09A80A54
:10080000031D152CA90A031D152CAA0A031D152C5E
:10081000AB0A031D152CAC0A031D152CAD0A031DD4
:10082000152CAE0A031D152CAF0A0130F00070081C
:10083000F20673308600003087000830F000003088
:100840001E00F00B202C2000200821042204230489
:10085000240425042604270403192F2C302C8C2C67
:10086000F101F10A3F2CA035A10DA20DA30DA40D9D
:10087000A50DA60DA70D0130F0007008F107A71F08
:10088000422C432C332CF335F40DF50DF60DF70DFA
:10089000F80DF90DFA0D27082F02031D692C260803
:1008A0002E02031D692C25082D02031D692C240826
:1008B0002C02031D692C23082B02031D692C22081E
:1008C0002A02031D692C21082902031D692C200816
:1008D0002802031C6C2C6D2C7E2C2008A8022108F9
:1008E000A93B2208AA3B2308AB3B2408AC3B2508C4
:1008F000AD3B2608AE3B2708AF3B7314A736A60CCA
:10090000A50CA40CA30CA20CA10CA00C0130F102AC
:10091000031D8B2C8C2C432C72080319902C912CCA
:10092000AF2CF309F409F509F609F709F809F909F3
:10093000FA09F30A031DAF2CF40A031DAF2CF50AC4
:10094000031DAF2CF60A031DAF2CF70A031DAF2CB5
:10095000F80A031DAF2CF90A031DAF2CFA0A73081D
:100960002000A0007408A1007508A2007608A3006A
:100970007708A4007808A5007908A6007A08A700DF
:1009800008002000BD003008C4003108C50032084E
:10099000C6003308C7003408C8003508C900360847
:1009A000CA003708CB004430860000308700473F3C
:1009B000B800B81BDC2CDE2C0130DF2C003020000E
:1009C000B900BA013908C2003A08C300420843041A
:1009D0000319EB2CEC2C0A2DC409C509C609C7095B
:1009E000C809C909CA09CB09C40A031D0A2DC50AC9
:1009F000031D0A2DC60A031D0A2DC70A031D0A2D51
:100A0000C80A031D0A2DC90A031D0A2DCA0A031D9F
:100A10000A2DCB0A2100D11B0E2D0F2D132DFD30D9
:100A2000D205FF30D3055108803A2000B80080304D
:100A30003802031D1E2D0130210050020318212D04
:100A4000222D282D01302000BE000030BF00302DA7
:100A5000210051082000BF00210050082000BE00E6
:100A600021004F082000C10021004E082000C000D6
:100A700042084304031D3D2D3E2D432D2100521DF0
:100A8000422D432D482DFF302000C007FF30C13DCF
:100A90001F302000CC000030CD002200BF01B92D56
:100AA000FF302000CC07FF30CD3D0A30A000A1016F
:100AB000A201A301A401A501A601A7014408A80061
:100AC0004508A9004608AA004708AB004808AC0042
:100AD0004908AD004A08AE004B08AF008131EA2159
:100AE000843120002108F4002008F3008A31182204
:100AF00084317308303E2000B8004C08203E860048
:100B00000130870038088100FF30BE07FF30BF3D4D
:100B1000FF30C007FF30C13D0A30A000A101A20193
:100B2000A301A401A501A601A7014408A800450846
:100B3000A9004608AA004708AB004808AC004908CD
:100B4000AD004A08AE004B08AF008331C0238431AA
:100B500020002008C4002108C5002208C600230880
:100B6000C7002408C8002508C9002608CA002708AD
:100B7000CB0020004D08803AB80080303802031DB9
:100B8000C32D01304C02031CC62DC72DF42D2000AF
:100B90004408450446044704480449044A044B04F5
:100BA000031DD32DD42D502D3F08803AB80080303E
:100BB0003802031DDD2D01303E020318E02DE12D2A
:100BC000502D20004108803AB80080303802031DC3
:100BD000EB2D01304002031CEE2DEF2DF42D2100F2
:100BE000D218F32DF42D502D200042084304031D8C
:100BF000FA2DFB2D002E2100521DFF2D002E1D2E43
:100C0000FF302000CC07FF30CD3D42084304031DD8
:100C10000A2E0B2E102E2B30BB000030BC00142EE1
:100C20002D30BB000030BC003B08B8004C08203E13
:100C30008600013087003808810020004C08203EE3
:100C4000B8003808A4004108A6004008A5003D08E7
:100C500080310820843120002508B1002408B0002C
:100C600008002000E2004E0886008701403FD000C7
:100C7000413FD10050088400510885001200253AF8
:100C8000031D432E442EB02F4E08860087010130ED
:100C9000810741310318810A2100CE01CF01D20121
:100CA000D301FF30D000FF30D1002000DE01DF0192
:100CB0009A2E2100521420004E0886008701013030
:100CC000810741310318810A9A2E2100D2145B2E2C
:100CD000210052155B2E2100D2155B2E21005216E9
:100CE0005B2E0130DE000030DF009A2E4E088600B9
:100CF0008701403FD000413FD10050088400510897
:100D000085000008D200D3015308003A0319892E48
:100D1000712E5208203A03196B2E033A03196E2ED6
:100D2000083A0319682E063A0319592E1D3A031979
:100D3000652E712E5E085F0403199F2EA02E762E5D
:100D40002100521CA42EA52EA92EFD30D205FF3065
:100D5000D30520004E0886008701403FD000413F68
:100D6000D100500884005108850012002A3A031D62
:100D7000BA2EBB2EDB2E4E0886008701013081077C
:100D800041310318810A4F08860087010108840059
:100D9000850102308107003F2100CE00013FCF00D6
:100DA000CF1FD32ED42E1D2F5214CE09CF09CE0A19
:100DB0000319CF0A1D2F4E0886008701403FFA0015
:100DC000413FFB008031612086317B082100CF004C
:100DD0007A08CE00F32E4E08860087010130810785
:100DE00041310318810A20004E0886008701403FE8
:100DF000D000413FD1005008840051088500000810
:100E0000D03ED200FF3003180030D3000030530230
:100E10000A3003195202031C0E2F102F0130112F1C
:100E20000030D400D5015408E0005508E100600806
:100E30006104031D1C2F1D2FEB2E20004E08860081
:100E40008701403FD000413FD10050088400510845
:100E500085001200643A03192E2F2F2F402F4E08C1
:100E600086008701403FD000413FD10050088400F8
:100E7000510885001200693A031D3F2F402F7B2F38
:100E80004E08860087010130810741310318810A2D
:100E90004F08860087010108840085010230810720
:100EA000003FD000013FD1005008D6005108D700C4
:100EB000890D893B8909D800D900DA00DB00DC0004
:100EC000DD005608B0005708B1005808B2005908B4
:100ED000B3005A08B4005B08B5005C08B6005D08B2
:100EE000B70062088431C124863120003108CF0068
:100EF0003008CE00D32F4E0886008701403FD00037
:100F0000413FD10050088400510885001200253A65
:100F1000031D8B2F8C2FA52F4E08860087010130D3
:100F2000810741310318810A2530F0000030F100BB
:100F30006208D0005008F2008D3160258631013002
:100F40002000CE000030CF00D32F4E08860087014E
:100F50000130810741310318810ACE01CF01D32F1F
:100F60004E0886008701403FD000413FD100500825
:100F70008400510885000008D200D3015208F00017
:100F80005308F1006208D4005408F2008D31602546
:100F9000863120004E0886008701013081074131EB
:100FA0000318810A9F2F08000430840080308500D8
:100FB000E630860000308700043089313A218731DD
:100FC000993084008B308500A03086000130870086
:100FD000303089313A218731EF01CC308400003044
:100FE00085001A3089313421873120308400013066
:100FF000850030308931342187312000813110293A
:10100000113400344B34573420343E3420344D34C2
:101010005434203425343034323464343A34253472
:101020003034323464340034523465346D346134D5
:1010300069346E3469346E34673420342534643452
:1010400020346D3469346E340034543469346D3472
:1010500065343A3425343034323464343A34253407
:1010600030343234643400344D346F346E3465348B
:1010700079343A3425346434593445344E340034A8
:08108000543406341B34003423
:10125C000800080016302100970008006400800187
:10126C000131890B35290034FE0012001E00FE0BE3
:10127C003B2900347030210099009801220096011E
:10128C00080024001E151E194C294D294929080057
:10129C008931D321893189314021893189313021FA
:1012AC008931080089316C21893124001E141E18E3
:1012BC00602961295D29080089316C21893124005C
:1012CC009E149E186A296B296729080024001E08A1
:1012DC001F39031D722973296C291C19762977294A
:1012EC006C29080008308931962189310830F200C8
:1012FC0072082000EF000630890B822900320800AA
:10130C00F0007008240099001C188D298E298A2958
:10131C001E1B912992298E2989316C218931080053
:10132C00F1008931582189317E308931862189310A
:10133C0071088931862189318931472189310630FB
:10134C00890BA62900320800F7000F307705F4004E
:10135C000A30F5007508F0007708F6000430F63610
:10136C00890BB52976088931BE21893174070800AB
:10137C00F300F201731CC329C429C8297008F100B9
:10138C007108F2070310F00D0310F30C7308031D22
:10139C00D029D129C0297208080022008C018D01A6
:1013AC00FF3021008C00FF308D00FE3023008D00BB
:1013BC001F308C0024008D018C0121009517220018
:1013CC009D019E010800F100710C2400031C9E126B
:1013DC0003189E169E151C1CF429F529F1291E16BE
:1013EC001908F0007008F2001D1389316C21893145
:1013FC00720808007008D03EF200FF30713DF30017
:10140C00003073020A3003197202031C0E2A102AD0
:10141C000130112A0030F400F5017408F000750851
:10142C00F10008007408803AF50080307502031D45
:10143C00212A013073020318242A252A312A730920
:10144C00F5007409F600F50A0319F60A7508F3009D
:10145C007608F400312A0800F4007408F2007208CF
:10146C00F3003C2A0130F2007208F407740886007D
:10147C00013087000108031D442A452A382A7308C5
:10148C007402F000F101F01BF10308005F2A7808E8
:10149C008600790887000108FA007A08FB00013001
:1014AC00F8070030F93DF201F20A7B088B31FA2380
:1014BC008A3178088600790887000108031D672A9D
:1014CC00682A4D2A0800F801F901741C6E2A6F2A4B
:1014DC00732A7608F8077708F93D0130F635F70DD1
:1014EC00890B742A0130F536F40C890B792A7408AF
:1014FC007504031D822A832A6B2A7908F500780863
:10150C00F4000800F401F40A203070067104031989
:10151C00902A912AA12A7008F73EF200FF30713D03
:10152C00F30000307302053003197202031C9F2A6A
:10153C00A02AA12AF4017408F200F3017208F00049
:10154C007308F1000800F900893158218A31D03034
:10155C00893186218A317908893186218A3189310C
:10156C0062218A31D130893186218A310130893129
:10157C00E9218A318931AA218A31F8007808FA00E8
:10158C00893147218A317A08080000308931962147
:10159C008A310430893196218A3100308931962183
:1015AC008A314230890BD82A003210308931962189
:1015BC008A311430893196218A3110308931962143
:1015CC008A318230F200DE30890BEA2AF20BEA2AE9
:1015DC0008002000A300A101A201072B2008F9009C
:1015EC00FA017908F0007A08F1007808FB007B0812
:1015FC00F2008D3160258A3101302000A1070030C6
:10160C00A23D21082307F9007908860001308700E4
:10161C000108FA007A08A0002008031D162B172BCE
:10162C00F42A0800A430FD007D082100AA0021083E
:10163C00AC002008AB00AD01AE01AF01B001230836
:10164C002000E400210022082000E300AA30FD0065
:10165C007D08E500AB308B31C9238B310230AB3EBA
:10166C0086008701403F210020078400413F213D37
:10167C008500800108002000A400210069082000DA
:10168C00A300210068082000A200210067082000A8
:10169C00A100210066082000A00003307802031C82
:1016AC00582B592B5B2BF801F80A7808203E860042
:1016BC008701010824078038F9007908A500F20198
:1016CC0025088B31FA238B310800F9000A30F00021
:1016DC000030F10079082000A000A1012008F200E0
:1016EC002108F3008D310D258B3170082000A200EC
:1016FC007108A3000A30F0000030F1007908A40052
:10170C00A5012408F2002508F3008D31B5258B3195
:10171C0070082000A6000330A635FF3E031D922B57
:10172C0026352207080001341134193402341134DF
:10173C002534033411343134043412340134053477
:10174C001234253406341234313407341334013452
:10175C000834133419340934133425340A3413344B
:10176C0031340B3414340D340C34143425340D341E
:10177C00153401340E34153418340F341534303418
:10178C001034163412342000E8006408EA006308B0
:10179C00E9002100CC01CD01E72B6930E600660899
:1017AC00CE006508E7006708CF006808863131264F
:1017BC008B3120004E082100CC0720004F0821005F
:1017CC00CD3D2000690884006A0885001200031DC5
:1017DC00F02BF12BD32B21004D082000E40021002D
:1017EC004C082000E3000800F5007508F0392000D3
:1017FC006F047204F3007308F6007508F3000330ED
:10180C00F335FF3E031D062C7335F0396F0472045B
:10181C00F4007408F7007608893196218B3176082C
:10182C000438893196218B317608FB398931962120
:10183C008B314230890B202C00327708893196216C
:10184C008B3177080438893196218B317708FB3935
:10185C00893196218B310800123020002302031CA1
:10186C00382C392C702C2308FA00FB017A08A600BE
:10187C007B08A7002408FA00FB017A08A8007B0863
:10188C00A9002708F5002608F4005430F6000630AD
:10189C00F7008A3169228C317408FA007508FB0054
:1018AC0020002908F5002808F4001B30F600003051
:1018BC00F7008A3169228C3174087A07FC007508AC
:1018CC007B3DFD007C08503E2000A00092307D3D09
:1018DC00A100742C6A30A000F230A1000800FC00BA
:1018EC0006308A31A9228C31FB007C0886008701E6
:1018FC007B08810005308A31A9228C31FB007C0ADF
:10190C00860087017B08810004308A31A9228C3142
:10191C00FB007C08023E860087017B0881000330B7
:10192C008A31A9228C3102308A31A9228C31FB00F8
:10193C007C08033E860087017B08810001308A31D8
:10194C00A9228C31FB007C08043E860087017B08B1
:10195C00810000308A31A9228C31FB007C08053EC5
:10196C00860087017B088100080089312E218C318B
:10197C00D6302100A0000030A1002530A200883014
:10198C00A30034082000EB00EC016B082100A4003C
:10199C0020006C082100A50035082000ED00EE01A8
:1019AC006D082100A60020006E082100A7008B31D5
:1019BC0018238C3140302100A0000130A1003430BC
:1019CC00A2008830A3003808A5003708A4008B318A
:1019DC0018238C318A31CB228C31F80100308B31B9
:1019EC0041238C31D630F8000030F9008A314C227A
:1019FC008C31F801F80A00308B3141238C314030A6
:101A0C00F8000130F9008A314C228C310800F601C3
:101A1C00F31F112D122D192DF209F309F20A0319D6
:101A2C00F30AF601F60AF11F1C2D1D2D222DF009CB
:101A3C00F109F00A0319F10A700871040319272D32
:101A4C00282D512DF501F50A342D0130F035F10D0D
:101A5C00890B2C2D0130F4007408F507F11F372D7C
:101A6C00382D2B2D71087302031D3E2D7008720248
:101A7C00031C412D422D462D7008F2027108F33BD8
:101A8C000130F136F00C890B472D0130F502031DA6
:101A9C00502D512D382D76080319552D562D5B2DB3
:101AAC00F209F309F20A0319F30A7308F100720838
:101ABC00F000080072080319642D652D6A2D720858
:101ACC00031D692D6A2D6F2D700889312F218D31E1
:101ADC00B42D7208043E8600870116000104031918
:101AEC00782D792D972D7208043E86008701403F92
:101AFC00F300413FF4007208023E86008701403F2C
:101B0C00F500413FF6007608803AF7007408803AF9
:101B1C007702031D932D730875020318962D972DCC
:101B2C00B42D7208023E860087017208840085017C
:101B3C00403F0007F3000131413F003DF4007308C2
:101B4C00860074088700700881007208023E8600C7
:101B5C0087010130810741310318810A0800F60121
:101B6C00F11FB92DBA2DC12DF009F109F00A031995
:101B7C00F10AF601F60AF31FC42DC52DCE2DF2097C
:101B8C00F309F20A0319F30A0130F4007408F6069B
:101B9C00F701F801700871040319D52DD62D052E07
:101BAC00F501F50AE22D0130F035F10D890BDA2D36
:101BBC000130F4007408F507F11FE52DE62DD92D41
:101BCC000130F735F80D890BE72D71087302031DF1
:101BDC00F12D70087202031CF42DF52DFA2D7008EE
:101BEC00F2027108F33B77140130F136F00C890BDB
:101BFC00FB2D0130F502031D042E052EE62D760873
:101C0C000319092E0A2E0F2EF709F809F70A0319E2
:101C1C00F80A7808F1007708F0000800FC00893118
:101C2C0058218E31D030893186218E310030893166
:101C3C0086218E317C08053E8600870101088B3198
:101C4C006B238E31893186218E317C08043E8600CF
:101C5C00870101088B316B238E31893186218E31BE
:101C6C007C08033E8600870101088B316B238E3183
:101C7C00893186218E310130893186218E317C0863
:101C8C00023E8600870101088B316B238E3189312E
:101C9C0086218E317C0A8600870101088B316B23EB
:101CAC008E31893186218E317C08860087010108AE
:101CBC008B316B238E31893186218E3189314721CD
:101CCC008E310330FB000830FA007730890B6C2E14
:101CDC00FA0B6C2EFB0B6C2E0000080089312E21A8
:101CEC008E31D6302100A0000030A1000230A200BD
:101CFC008830A30032082000EB00EC016B082100B7
:101D0C00A40020006C082100A50033082000ED0081
:101D1C00EE016D082100A60020006E082100A7002E
:101D2C008B3118238E3140302100A0000130A100EE
:101D3C000230A2008830A30035082000EB00EC0133
:101D4C006B082100A40020006C082100A5003608B7
:101D5C002000ED00EE016D082100A60020006E08A9
:101D6C002100A7008B3118238E318A31CB228E3182
:101D7C00F80100308B3141238E31D630F800003021
:101D8C00F9008A314C228E31F801F80A00308B317F
:101D9C0041238E314030F8000130F9008A314C2259
:101DAC008E31080089312E218E312100350820001A
:101DBC00EB00EC01210034082000ED00EE016D0871
:101DCC00F4006E08F5003C30F6000030F7008A3164
:101DDC0069228E3120006B0874072100BA002000A4
:101DEC006C08753D2100BB0039082000EB00EC01AC
:101DFC00210038082000ED00EE016D08F4006E089B
:101E0C00F5003C30F6000030F7008A3169228E3143
:101E1C0020006B0874072100BC0020006C08753D85
:101E2C002100BD00D630A0000030A1000230A2007D
:101E3C008830A30038082000EB00EC016B0821006F
:101E4C00A40020006C082100A50039082000ED003A
:101E5C00EE016D082100A60020006E082100A700ED
:101E6C008B3118238E3140302100A0000130A100AD
:101E7C001430A2008830A3003A083C02A4003B08AE
:101E8C003D3BA5008B3118238E318A31CB228E310C
:101E9C00F80100308B3141238E31D630F800003000
:101EAC00F9008A314C228E31F801F80A00308B315E
:101EBC0041238E314030F8000130F9008A314C2238
:101ECC008E3108002000AB00AA017B08A000A10104
:101EDC007A08A200A3012208F4002308F5003C3084
:101EEC00F6000030F7008A3169228F31200020087B
:101EFC007407A6002108753DA700AC010330A000B3
:101F0C002008F0002C088931BE218F31A23E8600BA
:101F1C000130870001082000A100A2010330A300BA
:101F2C002308F0002C088931BE218F31A13E860098
:101F3C000130870001082000A400A5012408F4004A
:101F4C002508F5003C30F6000030F7008A31692294
:101F5C008F31200021087407A8002208753DA900C4
:101F6C0029082702031DBC2F280826020318BF2F9F
:101F7C00C02FC52F2C08A0002008AA00CF2F01309D
:101F8C00A0002008AC0710302C02031CCE2FCF2F42
:101F9C00842F2A08A0002B088600870120088100C6
:101FAC000330A0002008F0002A088931BE218F31AF
:101FBC00A13E86000130870001082000A1002B0AF9
:101FCC0086008701210881000330A0002008F00062
:101FDC002A088931BE218F31A23E8600013087004C
:101FEC0001082000A1002B08023E86008701210871
:041FFC008100080058
:020000040001F9
:04000E00E43FFF1EAE
:00000001FF
