:020000040000FA
:10000000803102288731CA2F06340F340634313448
:10001000073419340734313408340D3408342534A6
:100020000934013409341934093431340A340D34B3
:100030000A3425340B3401340B3419340B34313485
:100040000C340D340C3425340D3401340D34193492
:100050000D3431340E340D340E3425340F34013464
:100060000F3419340F34313410340D341034253436
:10007000113401341134193411342534113431342C
:10008000123401341234253412343134133401342F
:1000900013341934133425341334313414340D34F7
:1000A00014342534153401341534183415343034EF
:1000B000163412342000A701A801A001A101642870
:1000C0000130F6070030F73DA601A60A7608840045
:1000D000770885001200203A03196F2870288528B8
:1000E00076088400770885000008F73EF800FF30A6
:1000F00003180030F9000030790205300319780246
:10010000031C832884288528A6012608F800F90105
:100110007808A2007908A30022082304031D91286F
:10012000922860289C280130A0000030A1000130F6
:10013000F6070030F73DD028760884007708850060
:100140000008F800F9017908003A0319A828D02816
:1001500078082B3A03199728063A03199328D028D0
:1001600076088400770885000008F8002808F10068
:100170002708F0000A30F2000030F3008A313522FF
:1001800080317108FA0078087002F900031CFA0344
:100190007908303E2000A70000307A3DA80097285B
:1001A00076088400770885000008D03EF800FF300C
:1001B00003180030F900003079020A300319780280
:1001C000031CE328E5280130E6280030FA00FB0193
:1001D0007A08A4007B08A50024082504031DF12843
:1001E000F228B02820082104031DF728F828042944
:1001F0002709F8002809F900F80A0319F90A78080C
:10020000F6007908F70008292808F7002708F60003
:100210000800893102218131243024008D00210021
:100220009513133024009A0028309D009E019C01F4
:100230008231CA228131893144218131F801003073
:100240008B310E23813115302100BB003B08C100EA
:100250000230BB003B08C2001630BB003B08C300A5
:100260000830BB003B08C4002830BB003B08C50079
:10027000C601CF01D001C1308E3113268131C1308A
:100280008B31CF2381311A302100BB00F830890B2C
:100290004729BB0B47290000BF30F6000030F700AC
:1002A00021004408BB003B08F8004508BC003C089E
:1002B000F9008F3161278131BD30F6000030F70041
:1002C00021003F08BB003B08F8004008BC003C0888
:1002D000F9008F316127813121004608031D712902
:1002E00072297E294008B0003F08AF003E08B200E6
:1002F0003D08B1008D31592581313F291E30460618
:10030000031D83298429A029C1308600003087007D
:10031000AF30840000308500403F803F413F813F47
:10032000423F823F433F833F443F843F453F853FB9
:100330004008B6003F08B5008E31DA2681313F29EA
:100340002D304606031DA529A6293F29C130860068
:10035000003087007630840000308500403F803FC9
:10036000413F813F423F823F433F833F443F843F81
:10037000453F853F8E317326813177082100D000BB
:100380007608CF00C130860000308700AF3084008F
:1003900000308500403F803F413F813F423F823FE8
:1003A000433F833F443F843F453F853F5008B6006D
:1003B0004F08B5008C31152481313F298031022846
:1003C000F2012830860000308700473FF000F01F20
:1003D000EA29EB290C2A2000A809A909AA09AB09D6
:1003E000AC09AD09AE09AF09A80A031D0A2AA90A7A
:1003F000031D0A2AAA0A031D0A2AAB0A031D0A2A98
:10040000AC0A031D0A2AAD0A031D0A2AAE0A031DFF
:100410000A2AAF0AF201F20A203086000030870073
:10042000473FF000F01F152A162A352A2000A009A0
:10043000A109A209A309A409A509A609A709A00A57
:10044000031D352AA10A031D352AA20A031D352AD8
:10045000A30A031D352AA40A031D352AA50A031D74
:10046000352AA60A031D352AA70A200020082104E0
:100470002204230424042504260427040319412A02
:10048000422A952AF101F10A512AA035A10DA20DA7
:10049000A30DA40DA50DA60DA70D0130F000700849
:1004A000F107A71F542A552A452A27082F02031DA2
:1004B000732A26082E02031D732A25082D02031D08
:1004C000732A24082C02031D732A23082B02031D00
:1004D000732A22082A02031D732A21082902031DF8
:1004E000732A20082802031C762A772A872A2008E4
:1004F000A8022108A93B2208AA3B2308AB3B2408F9
:10050000AC3B2508AD3B2608AE3B2708AF3BA736E2
:10051000A60CA50CA40CA30CA20CA10CA00C0130E1
:10052000F102031D942A952A552A72080319992A63
:100530009A2AB82AA809A909AA09AB09AC09AD09E0
:10054000AE09AF09A80A031DB82AA90A031DB82AD3
:10055000AA0A031DB82AAB0A031DB82AAC0A031D58
:10056000B82AAD0A031DB82AAE0A031DB82AAF0A7D
:1005700020002808A0002908A1002A08A2002B08B2
:10058000A3002C08A4002D08A5002E08A6002F0803
:10059000A70008000530F3000F30F200F130890B9E
:1005A000CF2AF20BCF2AF30BCF2A0000303089314B
:1005B0006221823134308931622182313030893197
:1005C000622182310D30F200FC30890BE52AF20BFA
:1005D000E52A30308931622182313430893162211B
:1005E000823130308931622182310D30F200FC30AD
:1005F000890BF82AF20BF82A3030893162218231D6
:100600003430893162218231303089316221823146
:10061000C830890B092B2030893162218231243086
:100620008931622182312030893162218231063064
:10063000890B182B0032203089316221823124301D
:100640008931622182312030893162218231423008
:10065000890B282B0032803089316221823184302D
:1006600089316221823180308931622182310030CA
:100670008931622182310430893162218231003036
:100680008931622182314230890B442B0032C030E3
:10069000893162218231C430893162218231C03096
:1006A0008931622182310030893162218231043006
:1006B00089316221823100308931622182314230B8
:1006C000890B602B00321030893162218231143065
:1006D00089316221823110308931622182310D30BD
:1006E000F200FC30890B722BF20B722B0030893137
:1006F00062218231043089316221823100308931B6
:10070000622182314230890B832B00326030893183
:1007100062218231643089316221823160308931D5
:100720006221823100308931622182310430893185
:100730006221823100308931622182314230890B5D
:100740009F2B00322030893162218231243089315F
:100750006221823120308931622182310830F200F9
:10076000CA30890BB12BF20BB12B0800F2012030FB
:10077000860000308700473FF000F01FC02BC12BE0
:10078000E22B2000A009A109A209A309A409A50937
:10079000A609A709A00A031DE02BA10A031DE02B4F
:1007A000A20A031DE02BA30A031DE02BA40A031DCC
:1007B000E02BA50A031DE02BA60A031DE02BA70AC8
:1007C000F201F20A2830860000308700473FF0002F
:1007D000F01FEB2BEC2B0F2C2000A809A909AA096C
:1007E000AB09AC09AD09AE09AF09A80A031D0B2C72
:1007F000A90A031D0B2CAA0A031D0B2CAB0A031D0F
:100800000B2CAC0A031D0B2CAD0A031D0B2CAE0ADE
:10081000031D0B2CAF0A0130F0007008F206733094
:100820008600003087000830F00000301E00F00B1A
:10083000162C20002008210422042304240425046B
:10084000260427040319252C262C822CF101F10AF9
:10085000352CA035A10DA20DA30DA40DA50DA60D3F
:10086000A70D0130F0007008F107A71F382C392CB4
:10087000292CF335F40DF50DF60DF70DF80DF90DE6
:10088000FA0D27082F02031D5F2C26082E02031DD8
:100890005F2C25082D02031D5F2C24082C02031D4C
:1008A0005F2C23082B02031D5F2C22082A02031D44
:1008B0005F2C21082902031D5F2C20082802031C3D
:1008C000622C632C742C2008A8022108A93B220862
:1008D000AA3B2308AB3B2408AC3B2508AD3B2608CC
:1008E000AE3B2708AF3B7314A736A60CA50CA40C8F
:1008F000A30CA20CA10CA00C0130F102031D812C51
:10090000822C392C72080319862C872CA52CF3090C
:10091000F409F509F609F709F809F909FA09F30ADA
:10092000031DA52CF40A031DA52CF50A031DA52CF7
:10093000F60A031DA52CF70A031DA52CF80A031DB2
:10094000A52CF90A031DA52CFA0A73082000A000A3
:100950007408A1007508A2007608A3007708A40017
:100960007808A5007908A6007A08A70008002000EA
:10097000BD003008C4003108C5003208C600330885
:10098000C7003408C8003508C9003608CA0037084F
:10099000CB004430860000308700473FB800B81BCA
:1009A000D22CD42C0130D52C00302000B900BA0153
:1009B0003908C2003A08C300420843040319E12C75
:1009C000E22C002DC409C509C609C709C809C9090F
:1009D000CA09CB09C40A031D002DC50A031D002D39
:1009E000C60A031D002DC70A031D002DC80A031DDA
:1009F000002DC90A031D002DCA0A031D002DCB0AB4
:100A00002100CC1B042D052D092DFD30CD05FF3017
:100A1000CE054C08803A2000B80080303802031D13
:100A2000142D013021004B020318172D182D1E2DF7
:100A300001302000BE000030BF00262D21004C08F0
:100A40002000BF0021004B082000BE0021004A0802
:100A50002000C100210049082000C00042084304D2
:100A6000031D332D342D392D21004D1D382D392DE9
:100A70003E2DFF302000C007FF30C13D1F30200059
:100A8000CC000030CD002200BF01AF2DFF30200090
:100A9000CC07FF30CD3D0A30A000A101A201A30187
:100AA000A401A501A601A7014408A8004508A900C2
:100AB0004608AA004708AB004808AC004908AD004A
:100AC0004A08AE004B08AF008131E021843120009C
:100AD0002108F4002008F3008931E42184317308EF
:100AE000303E2000B8004C08203E860001308700D0
:100AF00038088100FF30BE07FF30BF3DFF30C00720
:100B0000FF30C13D0A30A000A101A201A301A40150
:100B1000A501A601A7014408A8004508A9004608A8
:100B2000AA004708AB004808AC004908AD004A08D5
:100B3000AE004B08AF008331B6238431200020087B
:100B4000C4002108C5002208C6002308C7002408E5
:100B5000C8002508C9002608CA002708CB002000C5
:100B60004D08803AB80080303802031DB92D01309D
:100B70004C02031CBC2DBD2DEA2D20004408450469
:100B800046044704480449044A044B04031DC92D84
:100B9000CA2D462D3F08803AB80080303802031D28
:100BA000D32D01303E020318D62DD72D462D20001F
:100BB0004108803AB80080303802031DE12D013031
:100BC0004002031CE42DE52DEA2D2100CD18E92D6E
:100BD000EA2D462D200042084304031DF02DF12D7F
:100BE000F62D21004D1DF52DF62D132EFF30200082
:100BF000CC07FF30CD3D42084304031D002E012EDB
:100C0000062E2B30BB000030BC000A2E2D30BB005E
:100C10000030BC003B08B8004C08203E8600013084
:100C200087003808810020004C08203EB8003808B2
:100C3000A4004108A6004008A5003D088D3100250C
:100C4000843120002508B1002408B00008002000ED
:100C5000E2004E0886008701403FD000413FD100AE
:100C600050088400510885001200253A031D392ED2
:100C70003A2EA62F4E0886008701013081074131A8
:100C80000318810A2100C901CA01CD01CE01FF303C
:100C9000CB00FF30CC002000DE01DF01902E2100D0
:100CA0004D1420004E088600870101308107413134
:100CB0000318810A902E2100CD14512E21004D15CC
:100CC000512E2100CD15512E21004D16512E0130EF
:100CD000DE000030DF00902E4E0886008701403F86
:100CE000D000413FD1005008840051088500000821
:100CF000D200D3015308003A03197F2E672E520801
:100D0000203A0319612E033A0319642E083A031995
:100D10005E2E063A03194F2E1D3A03195B2E672EDD
:100D20005E085F040319952E962E6C2E21004D1C33
:100D30009A2E9B2E9F2EFD30CD05FF30CE05200034
:100D40004E0886008701403FD000413FD100500847
:100D500084005108850012002A3A031DB02EB12EDE
:100D6000D12E4E08860087010130810741310318DA
:100D7000810A4F088600870101088400850102303E
:100D80008107003F2100C900013FCA00CA1FC92EC8
:100D9000CA2E132F4D14C909CA09C90A0319CA0A50
:100DA000132F4E0886008701403FF600413FF700B1
:100DB00080315A20863177082100CA007608C900A0
:100DC000E92E4E0886008701013081074131031862
:100DD000810A20004E0886008701403FD000413F35
:100DE000D10050088400510885000008D03ED20090
:100DF000FF3003180030D300003053020A300319CB
:100E00005202031C042F062F0130072F0030D4009C
:100E1000D5015408E0005508E10060086104031D95
:100E2000122F132FE12E20004E0886008701403F2D
:100E3000D000413FD10050088400510885001200C5
:100E4000643A0319242F252F362F4E088600870178
:100E5000403FD000413FD100500884005108850038
:100E60001200693A031D352F362F712F4E08860068
:100E700087010130810741310318810A4F0886003C
:100E8000870101088400850102308107003FD000FE
:100E9000013FD1005008D6005108D700890D893B89
:100EA0008909D800D900DA00DB00DC00DD00560833
:100EB000B0005708B1005808B2005908B3005A08EA
:100EC000B4005B08B5005C08B6005D08B7006208B6
:100ED0008431B724863120003108CF003008CE009D
:100EE000C92F4E0886008701403FD000413FD10006
:100EF00050088400510885001200253A031D812FF7
:100F0000822F9B2F4E0886008701013081074131D7
:100F10000318810A2530F0000030F1006208D0008B
:100F20005008F2008C315E24863101302000CE0062
:100F30000030CF00C92F4E0886008701013081079D
:100F400041310318810ACE01CF01C92F4E08860016
:100F50008701403FD000413FD10050088400510834
:100F600085000008D200D3015208F0005308F100B8
:100F70006208D4005408F2008C315E2486312000CF
:100F80004E08860087010130810741310318810A2C
:100F9000952F080004308400803085001A308600C8
:100FA000213087000030FF005630893138218731E9
:100FB000F030840088308500E13086000030870002
:100FC0000030FF000430893138218731EF01C7300C
:100FD0008400003085001A30FE000030FF008931A7
:100FE0002C21873120308400013085002030FE0024
:100FF0000030FF0089312C218731200081310929FF
:10100000113400344B34573420343E3420344D34C2
:101010005434203425343034323464343A34253472
:101020003034323464340034543469346D346534CB
:1010300020343A3425343034323464343A3425346C
:1010400030343234643400344D346F346E346534AB
:1010500079343A3425346434593445344E340034C8
:101060002534643420346D3469346E3420346C3467
:101070006534663474340034543406341B3400341C
:0410800020340034E4
:1011D600080016302100970008000034403414340B
:1011E60054347030210099009801220096010800BD
:1011F60024001E151E1900290129FD280800893121
:101206009F2189318831F42089318831EC20893158
:10121600080089312021893124001E141E18142942
:1012260015291129080089312021893124009E14AD
:101236009E181E291F291B29080024001E081F3975
:10124600031D2629272920291C192A292B2920296B
:1012560008006400800101310130FE020030FF3BCE
:101266007F087E04031D2D290034FE0012001E0097
:101276000130FE020030FF3B7F087E04031D392942
:10128600003408308931622189310830F200720851
:101296002000EF000630890B4E2900320800F000CE
:1012A6007008240099001C1859295A2956291E1B12
:1012B6005D295E295A298931202189310800F100EA
:1012C60089310C2189317E30893152218931710869
:1012D6008931522189318831FB2089310630890BC9
:1012E600722900320800F7000F307705F4000A3043
:1012F600F5007508F0007708F6000430F636890B1D
:101306008129760889318A21893174070800F3001A
:10131600F201731C8F29902994297008F100710835
:10132600F2070310F00D0310F30C7308031D9C293C
:101336009D298C297208080022008C018D01FF303E
:1013460021008C00FF308D00FE3023008D001F3001
:101356008C0024008D018C012100951722009D012F
:101366009E010800F100710C2400031C9E12031854
:101376009E169E151C1CC029C129BD291E161908BA
:10138600F0007008F2001D1389312021893172089E
:1013960008007008D03EF200FF30713DF3000030C7
:1013A60073020A3003197202031CDA29DC290130A0
:1013B600DD290030F400F5017408F0007508F1002D
:1013C60008007408803AF50080307502031DED2987
:1013D600013073020318F029F129FD297309F5007C
:1013E6007409F600F50A0319F60A7508F30076087B
:1013F600F400FD290800F4007408F2007208F300F6
:10140600082A0130F2007208F407740886000130D9
:1014160087000108031D102A112A042A7308740282
:10142600F000F101F01BF10308002B2A7808840074
:10143600790885000008FA007A08FB000130F807F1
:101446000030F93DF201F20A7B088B3197238A318D
:1014560078088400790885001200031D332A342A8F
:10146600192A0800F401F501701C3A2A3B2A3F2A82
:101476007208F4077308F53D0130F235F30D890B58
:10148600402A0130F136F00C890B452A70087104A8
:10149600031D4E2A4F2A372A7508F1007408F000FA
:1014A6000800F401F40A20307006710403195C2A5E
:1014B6005D2A6D2A7008F73EF200FF30713DF30099
:1014C60000307302053003197202031C6B2A6C2A62
:1014D6006D2AF4017408F200F3017208F000730833
:1014E600F1000800F90089310C218A31D0308931A8
:1014F60052218A317908893152218A31893116215E
:101506008A31D130893152218A3101308931B52170
:101516008A31893176218A31F8007808FA008831D3
:10152600FB208A317A0808002100A900A230FD00BC
:101536007D08A8002908FD007D08AA00AB01AC01C2
:10154600AD01AE0121082000E400210020082000A2
:10155600E300A830FD007D08E500AA308B31662344
:101566008A3121002B082907FD007D0886008701A6
:10157600810108002000A601A7012608FC007C08BE
:10158600F80027088B310E238A314030F800883066
:10159600F9008A3118228A310130FC007C082000CB
:1015A600A70710302702031CD92ADA2AC02A0130DD
:1015B600FC007C08A60702302602031CE32AE42A64
:1015C600BF2A08002000A300A101A201FD2A2008CD
:1015D600F900FA017908F0007A08F1007808FB00B2
:1015E6007B08F2008C315E248A3101302000A1078D
:1015F6000030A23D21082307F90079088600013052
:1016060087000108FA007A08A0002008031D0C2BA9
:101616000D2BEA2A08002000A400210064082000FF
:10162600A300210063082000A20021006208200018
:10163600A100210061082000A00003307802031CED
:10164600252B262B282BF801F80A7808203E860041
:101656008701010824078038F9007908A500F201FE
:1016660025088B3197238B310800F9000A30F000EA
:101676000030F10079082000A000A1012008F20046
:101686002108F3008C31AD248B3170082000A200B4
:101696007108A3000A30F0000030F1007908A400B8
:1016A600A5012408F2002508F3008D31B4258B31FD
:1016B60070082000A6000330A635FF3E031D5F2BF1
:1016C6002635220708002000E8006408EA006308BF
:1016D600E9002100C701C801842B6930E6006608CD
:1016E600CE006508E7006708CF0068088631272620
:1016F6008B3120004E082100C70720004F0821002B
:10170600C83D2000690884006A0885001200031D90
:101716008D2B8E2B702B210048082000E400210021
:1017260047082000E3000800F5007508F03920009E
:101736006F047204F3007308F6007508F3000330B3
:10174600F335FF3E031DA32B7335F0396F04720486
:10175600F4007408F7007608893162218B31760827
:101766000438893162218B317608FB39893162214F
:101776008B314230890BBD2B0032770889316221CB
:101786008B3177080438893162218B317708FB3930
:10179600893162218B310800FC0006308A317522BE
:1017A6008B31FB007C08860087017B0881000530B1
:1017B6008A3175228B31FB007C0A860087017B0803
:1017C600810004308A3175228B31FB007C08023E91
:1017D600860087017B08810003308A3175228B31B0
:1017E60002308A3175228B31FB007C08033E86006D
:1017F60087017B08810001308A3175228B31FB001D
:101806007C08043E860087017B08810000308A310F
:1018160075228B31FB007C08053E860087017B081C
:10182600810008008A31BD228C3114302100A000CD
:101836008830A10032082000EB00EC016B08210083
:10184600A20020006C082100A30033082000ED0050
:10185600EE016D082100A40020006E082100A500FD
:10186600D1308A3197228C31F80100308B310E232A
:101876008C31D130F8000030F9008A3118228C31D1
:1018860024302100A0008830A1003608A3003508C6
:10189600A200D1308A3197228C31F801F80A003043
:1018A6008B310E238C31D130F8000030F9008A31AB
:1018B60018228C31080072080319622C632C682CDC
:1018C6007208031D672C682C6D2C70088831EB207C
:1018D6008C31AC2C7208033E860087011600010489
:1018E6000319762C772C942C7208033E8600870108
:1018F600403FF300413FF400720A86008701403FF3
:10190600F500413FF6007608803AF7007408803A01
:101916007702031D902C730875020318932C942CE0
:10192600AC2C7008F300720886008701720A8400E6
:10193600850100080107F400740886008701730812
:101946008100720A86008701013081074131031840
:10195600810A0800F601F31FB12CB22CB92CF2094A
:10196600F309F20A0319F30AF601F60AF11FBC2C71
:10197600BD2CC22CF009F109F00A0319F10A70080E
:1019860071040319C72CC82CF12CF501F50AD42CC7
:101996000130F035F10D890BCC2C0130F4007408C0
:1019A600F507F11FD72CD82CCB2C71087302031D19
:1019B600DE2C70087202031CE12CE22CE62C700867
:1019C600F2027108F33B0130F136F00C890BE72C7B
:1019D6000130F502031DF02CF12CD82C76080319E2
:1019E600F52CF62CFB2CF209F309F20A0319F30A7B
:1019F6007308F1007208F00008002000AB00210017
:101A06004D1C062D072D102D20002B08FC007C08F0
:101A1600F80024088A31E5228D312000A61B142DFA
:101A2600152D1A2D2608AA002508A9001C2DA90186
:101A3600AA01A701A801302D2030F0000030F100E6
:101A460020002B08FC007C08F2008C315E248D31CE
:101A560001302000A7070030A83D2808803AFC0086
:101A66002A08803A7C02031D3A2D29082702031C06
:101A76003D2D3E2D1F2D21004D18422D432D4C2D61
:101A860020002B08FC007C08F80024088A31E52297
:101A96008D31200024088931FE218D31200029084E
:101AA6007007A4002A08713DA50008008A31BD22EE
:101AB6008D3102302100A0008830A1002F082000BF
:101AC600EB00EC016B082100A20020006C0821004D
:101AD600A30030082000ED00EE016D082100A400EF
:101AE60020006E082100A500D1308A3197228D3161
:101AF600F80100308B310E238D31D130F8000030E3
:101B0600F9008A3118228D3102302100A000883078
:101B1600A10031082000EB00EC016B082100A200B7
:101B260020006C082100A30032082000ED00EE0121
:101B36006D082100A40020006E082100A500D13008
:101B46008A3197228D31F801F80A00308B310E2345
:101B56008D31D130F8000030F9008A3118228D31EC
:101B66000800F601F11FB82DB92DC02DF009F109B5
:101B7600F00A0319F10AF601F60AF31FC32DC42D64
:101B8600CD2DF209F309F20A0319F30A0130F40024
:101B96007408F606F701F801700871040319D42DCC
:101BA600D52D042EF501F50AE12D0130F035F10DA4
:101BB600890BD92D0130F4007408F507F11FE42DC7
:101BC600E52DD82D0130F735F80D890BE62D710876
:101BD6007302031DF02D70087202031CF32DF42D01
:101BE600F92D7008F2027108F33B77140130F136D3
:101BF600F00C890BFA2D0130F502031D032E042E7D
:101C0600E52D76080319082E092E0E2EF709F80978
:101C1600F70A0319F80A7808F1007708F0000800B7
:101C2600FC0089310C218E31D030893152218E3120
:101C36000030893152218E317C08053E86008701AD
:101C460001088B3138238E31893152218E317C083F
:101C5600043E8600870101088B3138238E31893195
:101C660052218E317C08033E8600870101088B31A4
:101C760038238E31893152218E31013089315221FA
:101C86008E317C08023E8600870101088B3138239D
:101C96008E31893152218E317C0A860087010108F6
:101CA6008B3138238E31893152218E317C08860062
:101CB600870101088B3138238E31893152218E31CB
:101CC6008831FB208E310330FB000830FA00773074
:101CD600890B6B2EFA0B6B2EFB0B6B2E000008008C
:101CE60079082000A000A1012008A4002108A50071
:101CF6007A08A000A1012008A6002108A70012303A
:101D06007902031C872E882EB12E2508F10024089F
:101D1600F0005430F2000630F3008A3135228E315D
:101D260070082000A0007108A1002708F10026080D
:101D3600F0001B30F2000030F3008A3135228E317C
:101D4600700820002007A2007108213DA300220888
:101D5600503EF6009230233DF700D92E2508F100BB
:101D66002408F0005430F2000630F3008A313522A0
:101D76008E3170082000A0007108A1002708F1002C
:101D86002608F0001B30F2000030F3008A313522BD
:101D96008E31700820002007A2007108213DA300A3
:101DA6002208283EF600C930233DF70008008A3194
:101DB600BD228E31210033082000EB00EC0121000A
:101DC60032082000ED00EE016D08F0006E08F1000B
:101DD6003C30F2000030F3008A3135228E3120008B
:101DE6006B0870072100B70020006C08713D2100C8
:101DF600B80036082000EB00EC0121003508200071
:101E0600ED00EE016D08F0006E08F1003C30F200C6
:101E16000030F3008A3135228E3120006B087007BE
:101E26002100B90020006C08713D2100BA00023083
:101E3600A0008830A10035082000EB00EC016B08FB
:101E46002100A20020006C082100A3003608200013
:101E5600ED00EE016D082100A40020006E082100AF
:101E6600A500D1308A3197228E31F80100308B31AE
:101E76000E238E31D130F8000030F9008A31182255
:101E86008E3130302100A0008830A1003708390299
:101E9600A20038083A3BA300D1308A3197228E310E
:101EA600F801F80A00308B310E238E31D130F8005C
:101EB6000030F9008A3118228E3108002000B00166
:101EC6007908A000A1017808A200A3012208F00069
:101ED6002308F1003C30F2000030F3008A3135224D
:101EE6008F31200020087007AC002108713DAD003D
:101EF600B1013108A000A101A035A10D1B30A2003F
:101F06002130A3002008220786002108233D8700F0
:101F16000108A400A5013108A600A701A635A70D52
:101F26001A30A8002130A9002608280786002708AD
:101F3600293D87000108AA00AB012A08F0002B08FA
:101F4600F1003C30F2000030F3008A3135228F3147
:101F5600200024087007AE002508713DAF002F0849
:101F66002D02031DB82F2E082C020318BB2FBC2FE1
:101F7600C12F3108A0002008B000CB2F0130A000EF
:101F86002008B1072B303102031CCA2FCB2F7C2F20
:101F96003008A000A101A035A10D1A30A200213001
:101FA600A3002008220786002108233D8700010898
:101FB600A400760886007708870024088100300888
:101FC600A000A101A035A10D1B30A2002130A30065
:101FD6002008220786002108233D87000108A40067
:101FE6007608013EA5000030773DA600250886004C
:0A1FF6002608870024088100080077
:020000040001F9
:04000E00E43FFF1EAE
:00000001FF
