:10000000803102288731CB2F0034403414345434EB
:1000100006340F34063419340634313407340134CD
:1000200007340D34073419340734313408340134BB
:1000300008340D34083419340834253409340134B3
:1000400009341934093431340A340D340A3425346E
:100050000B3401340B3419340B3431340C340D347B
:100060000C3425340D3401340D3419340D3431344D
:100070000E340D340E3425340F3401340F3419345A
:100080000F34313410340D341034253410343134FD
:100090001134013411340D34113419341134253430
:1000A000113431341234013412340D341234193411
:1000B00012342534123431341334013413340D34F2
:1000C00013341934133425341334313414340D34C7
:1000D00014342534153401341534183415343034BF
:1000E000163412342000B0017908A000A10178086C
:1000F000A200A3012208F0002308F1003C30F20026
:100100000030F3008B316823803120002008700715
:10011000AC002108713DAD00B1013108A000A10182
:10012000A035A10D0730A2002130A300200822072E
:1001300086002108233D87000108A400A50131089D
:10014000A600A701A635A70D0630A8002130A900FA
:100150002608280786002708293D87000108AA00ED
:10016000AB012A08F0002B08F1003C30F20000300F
:10017000F3008B3168238031200024087007AE0023
:100180002508713DAF002F082D02031DC9282E0838
:100190002C020318CC28CD28D2283108A000200832
:1001A000B000DC280130A0002008B1073530310252
:1001B000031CDB28DC288D283008A000A101A03515
:1001C000A10D0630A2002130A300200822078600DE
:1001D0002108233D87000108A400760886007708DF
:1001E0008700240881003008A000A101A035A10DDE
:1001F0000730A2002130A300200822078600210832
:10020000233D87000108A4007608013EA5000030C8
:10021000773DA6002508860026088700240881006F
:1002200008008A3135228131243024008D002100DC
:100230009513133024009A0028309D009E019C01E4
:100240008231D92281318A3177228131F80100301F
:100250008C313F24813115302000EE006E082100E2
:10026000C00003302000EE006E082100C100C20172
:10027000C20A15302000EE006E082100C3002E30A7
:100280002000EE006E082100C400C501CE01CF01A0
:10029000C0308C31D22481311A302000EE00F83089
:1002A000890B5029EE0B50290000BE30F6000030BB
:1002B000F700210043082000EE006E08F80021003E
:1002C00044082000EF006F08F9008031722081316E
:1002D000BC30F6000030F70021003E082000EE00A0
:1002E0006E08F80021003F082000EF006F08F900B9
:1002F00080317220813121004508031D8029812928
:100300008D293F08AD003E08AC003D08AF003C0819
:10031000AE008E311026813148291E304506031D5E
:1003200092299329AF29C030860000308700AC3075
:10033000840000308500403F803F413F813F423F85
:10034000823F433F833F443F843F453F853F3F08D3
:10035000B3003E08B2008E316B26813148292D3022
:100360004506031DB429B5294829C0308600003050
:1003700087007630840000308500403F803F413F59
:10038000813F423F823F433F833F443F843F453F5D
:10039000853F8E31EB26813177082100CF0076082A
:1003A000CE00C030860000308700AC3084000030C2
:1003B0008500403F803F413F813F423F823F433F76
:1003C000833F443F843F453F853F4F08B3004E087D
:1003D000B2008D3118258131482980310228F2017F
:1003E0002830860000308700473FF000F01FF929D1
:1003F000FA291B2A2000A809A909AA09AB09AC09F6
:10040000AD09AE09AF09A80A031D192AA90A031DDF
:10041000192AAA0A031D192AAB0A031D192AAC0AB4
:10042000031D192AAD0A031D192AAE0A031D192A34
:10043000AF0AF201F20A2030860000308700473F01
:10044000F000F01F242A252A442A2000A009A1092F
:10045000A209A309A409A509A609A709A00A031DC1
:10046000442AA10A031D442AA20A031D442AA30AFE
:10047000031D442AA40A031D442AA50A031D442A75
:10048000A60A031D442AA70A2000200821042204EA
:10049000230424042504260427040319502A512A7E
:1004A000A42AF101F10A602AA035A10DA20DA30D25
:1004B000A40DA50DA60DA70D0130F0007008F107E1
:1004C000A71F632A642A542A27082F02031D822AA1
:1004D00026082E02031D822A25082D02031D822ACA
:1004E00024082C02031D822A23082B02031D822AC2
:1004F00022082A02031D822A21082902031D822ABA
:1005000020082802031C852A862A962A2008A80289
:100510002108A93B2208AA3B2308AB3B2408AC3B9B
:100520002508AD3B2608AE3B2708AF3BA736A60CF7
:10053000A50CA40CA30CA20CA10CA00C0130F10280
:10054000031DA32AA42A642A72080319A82AA92A27
:10055000C72AA809A909AA09AB09AC09AD09AE09BE
:10056000AF09A80A031DC72AA90A031DC72AAA0A98
:10057000031DC72AAB0A031DC72AAC0A031DC72ADD
:10058000AD0A031DC72AAE0A031DC72AAF0A200001
:100590002808A0002908A1002A08A2002B08A3000F
:1005A0002C08A4002D08A5002E08A6002F08A700DF
:1005B00008000530F3000F30F200F130890BDE2A1D
:1005C000F20BDE2AF30BDE2A000030308A3195224E
:1005D000823134308A319522823130308A3195220D
:1005E00082310D30F200FC30890BF42AF20BF42A30
:1005F00030308A319522823134308A3195228231ED
:1006000030308A31952282310D30F200FC30890B76
:10061000072BF20B072B30308A3195228231343090
:100620008A319522823130308A3195228231C83028
:10063000890B182B20308A319522823124308A315F
:100640009522823120308A31952282310630890B01
:10065000272B003220308A319522823124308A3192
:100660009522823120308A31952282314230890BA5
:10067000372B003280308A319522823184308A31A2
:100680009522823180308A319522823100308A3140
:100690009522823104308A319522823100308A31AC
:1006A000952282314230890B532B0032C0308A317F
:1006B00095228231C4308A3195228231C0308A310C
:1006C0009522823100308A319522823104308A317C
:1006D0009522823100308A31952282314230890B55
:1006E0006F2B003210308A319522823114308A31DA
:1006F0009522823110308A31952282310D30F200FC
:10070000FC30890B812BF20B812B00308A31952232
:10071000823104308A319522823100308A3195222B
:1007200082314230890B922B003260308A3195221F
:10073000823164308A319522823160308A3195224B
:10074000823100308A319522823104308A319522FB
:10075000823100308A31952282314230890BAE2BB2
:10076000003220308A319522823124308A3195221C
:10077000823120308A31952282310830F200CA302D
:10078000890BC02BF20BC02B0800F2012030860031
:1007900000308700473FF000F01FCF2BD02BF12B0C
:1007A0002000A009A109A209A309A409A509A60975
:1007B000A709A00A031DEF2BA10A031DEF2BA20A14
:1007C000031DEF2BA30A031DEF2BA40A031DEF2B20
:1007D000A50A031DEF2BA60A031DEF2BA70AF201A2
:1007E000F20A2830860000308700473FF000F01FF3
:1007F000FA2BFB2B1E2C2000A809A909AA09AB097A
:10080000AC09AD09AE09AF09A80A031D1A2CA90A43
:10081000031D1A2CAA0A031D1A2CAB0A031D1A2C3D
:10082000AC0A031D1A2CAD0A031D1A2CAE0A031DB7
:100830001A2CAF0A0130F0007008F20673308600FF
:10084000003087000830F00000301E00F00B252C2F
:100850002000200821042204230424042504260463
:1008600027040319342C352C912CF101F10A442C66
:10087000A035A10DA20DA30DA40DA50DA60DA70DCC
:100880000130F0007008F107A71F472C482C382CC6
:10089000F335F40DF50DF60DF70DF80DF90DFA0D14
:1008A00027082F02031D6E2C26082E02031D6E2C16
:1008B00025082D02031D6E2C24082C02031D6E2C0E
:1008C00023082B02031D6E2C22082A02031D6E2C06
:1008D00021082902031D6E2C20082802031C712CFC
:1008E000722C832C2008A8022108A93B2208AA3BCD
:1008F0002308AB3B2408AC3B2508AD3B2608AE3BA8
:100900002708AF3B7314A736A60CA50CA40CA30CA8
:10091000A20CA10CA00C0130F102031D902C912C13
:10092000482C72080319952C962CB42CF309F40961
:10093000F509F609F709F809F909FA09F30A031D97
:10094000B42CF40A031DB42CF50A031DB42CF60ACA
:10095000031DB42CF70A031DB42CF80A031DB42C94
:10096000F90A031DB42CFA0A73082000A0007408C9
:10097000A1007508A2007608A3007708A4007808F3
:10098000A5007908A6007A08A70008002000BD008D
:100990003008C4003108C5003208C6003308C7005B
:1009A0003408C8003508C9003608CA003708CB002B
:1009B0004430860000308700473FB800B81BE12C68
:1009C000E32C0130E42C00302000B900BA013908D2
:1009D000C2003A08C300420843040319F02CF12C6A
:1009E0000F2DC409C509C609C709C809C909CA091B
:1009F000CB09C40A031D0F2DC50A031D0F2DC60AFE
:100A0000031D0F2DC70A031D0F2DC80A031D0F2D2F
:100A1000C90A031D0F2DCA0A031D0F2DCB0A210081
:100A2000CB1B132D142D182DFD30CC05FF30CD051B
:100A30004B08803A2000B80080303802031D232D77
:100A4000013021004A020318262D272D2D2D0130BB
:100A50002000BE000030BF00352D21004B082000D3
:100A6000BF0021004A082000BE00210049082000E4
:100A7000C100210048082000C00042084304031DB3
:100A8000422D432D482D21004C1D472D482D4D2D25
:100A9000FF302000C007FF30C13D1F302000CC00D8
:100AA0000030CD002200BF01BE2DFF302000CC075A
:100AB000FF30CD3D0A30A000A101A201A301A40195
:100AC000A501A601A7014408A8004508A9004608F9
:100AD000AA004708AB004808AC004908AD004A0826
:100AE000AE004B08AF008131EF2184312000210896
:100AF000F4002008F3008B31172384317308303E53
:100B00002000B8004C08203E8600013087003808DD
:100B10008100FF30BE07FF30BF3DFF30C007FF3010
:100B2000C13D0A30A000A101A201A301A401A501B9
:100B3000A601A7014408A8004508A9004608AA0084
:100B40004708AB004808AC004908AD004A08AE00B1
:100B50004B08AF008331C523843120002008C40036
:100B60002108C5002208C6002308C7002408C800C1
:100B70002508C9002608CA002708CB0020004D0818
:100B8000803AB80080303802031DC82D01304C0275
:100B9000031CCB2DCC2DF92D200044084504460420
:100BA0004704480449044A044B04031DD82DD92D99
:100BB000552D3F08803AB80080303802031DE22DE1
:100BC00001303E020318E52DE62D552D2000410889
:100BD000803AB80080303802031DF02D0130400209
:100BE000031CF32DF42DF92D2100CC18F82DF92D2F
:100BF000552D200042084304031DFF2D002E052E15
:100C000021004C1D042E052E222EFF302000CC0783
:100C1000FF30CD3D42084304031D0F2E102E152E2C
:100C20002B30BB000030BC00192E2D30BB00003033
:100C3000BC003B08B8004C08203E8600013087000D
:100C40003808810020004C08203EB8003808A40075
:100C50004108A6004008A5003D088D31B725843124
:100C600020002508B1002408B00008002000DF00A3
:100C70004E0886008701403FD000413FD100500818
:100C80008400510885001200253A031D482E492E84
:100C9000A72F4E08860087010130810741310318D4
:100CA000810A2100C801C901CC01CD01FF30CA0071
:100CB000FF30CB002000DD01DE019F2E21004C140F
:100CC00020004E088600870101308107413103185A
:100CD000810A9F2E2100CC14602E21004C15602E1D
:100CE0002100CC15602E21004C16602E0130DD0055
:100CF0000030DE009F2E4E0886008701403FD00066
:100D0000413FD10050088400510885000008D200FE
:100D1000D3015308003A03198E2E762E5208203A3A
:100D20000319702E033A0319732E083A03196D2E16
:100D3000063A03195E2E1D3A03196A2E762E5D08B7
:100D40005E040319A42EA52E7B2E21004C1CA92E77
:100D5000AA2EAE2EFD30CC05FF30CD0520004E086A
:100D600086008701403FD000413FD10050088400F9
:100D70005108850012002A3A031DBF2EC02EE02E16
:100D80004E08860087010130810741310318810A2E
:100D90004F08860087010108840085010230810721
:100DA000003F2100C800013FC900C91FD82ED92E1D
:100DB000142F4C14C809C909C80A0319C90A142FE9
:100DC0004E0886008701403FF600413FF7008F3113
:100DD0006C27863177082100C9007608C800F82EF4
:100DE0004E08860087010130810741310318810ACE
:100DF00020004E0886008701403FD000413FD100CF
:100E000050088400510885000008D03ED200FF3011
:100E100003180030D300003053020A300319520285
:100E2000031C132F142FF02E20004E08860087017C
:100E3000403FD000413FD100500884005108850058
:100E40001200643A0319252F262F372F4E088600EB
:100E50008701403FD000413FD10050088400510835
:100E600085001200693A031D362F372F722F4E0866
:100E7000860087010130810741310318810A4F083C
:100E80008600870101088400850102308107003F48
:100E9000D000013FD1005008D5005108D600890D7F
:100EA000893B8909D700D800D900DA00DB00DC00D3
:100EB0005508B0005608B1005708B2005808B300F2
:100EC0005908B4005A08B5005B08B6005C08B700C2
:100ED0005F088431C624863120003108CF003008F5
:100EE000CE00CA2F4E0886008701403FD000413F08
:100EF000D10050088400510885001200253A031DD6
:100F0000822F832F9C2F4E08860087010130810796
:100F100041310318810A2530F0000030F1005F08EC
:100F2000D0005008F2008D31652586310130200057
:100F3000CE000030CF00CA2F4E0886008701013056
:100F4000810741310318810ACE01CF01CA2F4E0813
:100F500086008701403FD000413FD1005008840007
:100F6000510885000008D200D3015208F000530850
:100F7000F1005F08D4005408F2008D3165258631F8
:100F800020004E0886008701013081074131031897
:100F9000810A962F080008308400803085000630D2
:100FA0008600213087000030FF006A308A316B22D2
:100FB00087310430840080308500E23086000030C4
:100FC00087000030FF0004308A316B228731C63041
:100FD0008400003085001C30FE000030FF008A31A4
:100FE0005F22873120308400013085002030FE00F0
:100FF0000030FF008A315F228731200081311129C2
:10100000113400344B34573420343E3420344D34C2
:101010005434203425343034323464343A34253472
:101020003034323464340034543469346D346534CB
:1010300020343A3425343034323464343A3425346C
:1010400030343234643400344D346F346E346534AB
:1010500079343A3425346434593445344E340034C8
:101060002534643420346D3469346E3420346C3467
:101070006534663474340034543406341B3400341C
:0410800020340034E4
:101444000800163021009700080070302100990030
:10145400980122009601080024001E151E19332A43
:10146400342A302A08008A31D2228A318A3127224A
:101474008A318A3123228A3108008A3153228A31FF
:1014840024001E141E18472A482A442A08008A31B8
:1014940053228A3124009E149E18512A522A4E2A1D
:1014A400080024001E081F39031D592A5A2A532AEA
:1014B4001C195D2A5E2A532A080064008001013148
:1014C4000130FE020030FF3B7F087E04031D602ACA
:1014D4000034FE0012001E000130FE020030FF3B0B
:1014E4007F087E04031D6C2A003408308A3195225B
:1014F4008A310830F20072082100D1000630890BCD
:10150400812A00320800F0007008240099001C1899
:101514008C2A8D2A892A1E1B902A912A8D2A8A3187
:1015240053228A310800F1008A313F228A317E3009
:101534008A3185228A3171088A3185228A318A3139
:101544002E228A310630890BA52A00320800F700C2
:101554000F307705F4000A30F5007508F0007708BD
:10156400F6000430F636890BB42A76088A31BD2297
:101574008A3174070800F300F201731CC22AC32ADB
:10158400C72A7008F1007108F2070310F00D031068
:10159400F30C7308031DCF2AD02ABF2A720808004F
:1015A40022008C018D01FF3021008C00FF308D0062
:1015B400FE3023008D001F308C0024008D018C012F
:1015C4002100951722009D019E010800F100710C75
:1015D4002400031C9E1203189E169E151C1CF32A3D
:1015E400F42AF02A1E161908F0007008F2001D13E0
:1015F4008A3153228A31720808007008D03EF20002
:10160400FF30713DF300003073020A300319720297
:10161400031C0D2B0F2B0130102B0030F400F501AF
:101624007408F0007508F10008007408803AF500A9
:1016340080307502031D202B013073020318232B05
:10164400242B302B7309F5007409F600F50A0319ED
:10165400F60A7508F3007608F400302B0800F4004D
:101664007408F2007208F3003B2B0130F200720898
:10167400F40774088600013087000108031D432B1A
:10168400442B372B73087402F000F101F01BF103B3
:1016940008005E2B78088400790885000008FA00A9
:1016A4007A08FB000130F8070030F93DF201F20A34
:1016B4007B088C319A248B31780884007908850062
:1016C4001200031D662B672B4C2B0800F401F50157
:1016D400701C6D2B6E2B722B7208F4077308F53D8A
:1016E4000130F235F30D890B732B0130F136F00C18
:1016F400890B782B70087104031D812B822B6A2BB4
:101704007508F1007408F0000800F401F40A2030B0
:101714007006710403198F2B902BA02B7008F73ED1
:10172400F200FF30713DF3000030730205300319FD
:101734007202031C9E2B9F2BA02BF4017408F20051
:10174400F3017208F0007308F1000800F9008A310F
:101754003F228B31D0308A3185228B3179088A310E
:1017640085228B318A3149228B31D1308A318522CD
:101774008B3101308A31E8228B318A31A9228B31B5
:10178400F8007808FA008A312E228B317A08080092
:101794002100A1006A30FD007D08A0002108FD00A1
:1017A4007D08A200A401A501AA01AB0120006908DB
:1017B400E1006808E000A030FD007D08E200A230EE
:1017C4008C3169248B31210024082107FD007D0818
:1017D40086008701810108002000A601A7012608D0
:1017E400FC007C08F80027088C313F248B31403002
:1017F400F8008830F9008B314B238B310130FC0029
:101804007C082000A70710302702031C0A2C0B2C8D
:10181400F12B0130FC007C08A60702302602031CD1
:10182400142C152CF02B08002000A300A101A20108
:101834002E2C2008F900FA017908F0007A08F1004A
:101844007808FB007B08F2008D3165258C3101306E
:101854002000A1070030A23D21082307F9007908E0
:101864008600013087000108FA007A08A0002008E9
:10187400031D3D2C3E2C1B2C08002000A40021003D
:1018840065082000A300210064082000A2002100B4
:1018940063082000A100210062082000A00003309A
:1018A4007802031C562C572C592CF801F80A780896
:1018B400203E86008701010824078038F900790852
:1018C400A500F20125088C319A248C3108002000EF
:1018D400E5006108E7006008E6002100C601C701D1
:1018E400872C6630E3006308CE006208E4006408D5
:1018F400CF006508863136268C3120004E08210041
:10190400C60720004F082100C73D20006608840058
:10191400670885001200031D902C912C732C210064
:1019240047082000E100210046082000E0000800EC
:10193400F5007508F039210051047204F3007308AE
:10194400F6007508F3000330F335FF3E031DA62CA3
:101954007335F03951047204F4007408F700760802
:101964008A3195228C31760804388A3195228C315B
:101974007608FB398A3195228C314230890BC02C90
:10198400003277088A3195228C31770804388A31FD
:1019940095228C317708FB398A3195228C310800E5
:1019A400FC0006308B31A8238C31FB007C088600B8
:1019B40087017B08810005308B31A8238C31FB0023
:1019C4007C0A860087017B08810004308B31A823C0
:1019D4008C31FB007C08023E860087017B08810075
:1019E40003308B31A8238C3102308B31A8238C3106
:1019F400FB007C08033E860087017B0881000130E0
:101A04008B31A8238C31FB007C08043E86008701BF
:101A14007B08810000308B31A8238C31FB007C08CB
:101A2400053E860087017B08810008008B31EE2388
:101A34008D3114302000E8008830E90021002F089F
:101A4400B400B50134082000EA0021003508200064
:101A5400EB0021003008B600B70136082000EC0086
:101A6400210037082000ED00D2308B31CA238D319C
:101A7400F80100308C313F248D31D230F800003031
:101A8400F9008B314B238D3124302000E80088305D
:101A9400E900210033082000EB0021003208200077
:101AA400EA00D2308B31CA238D31F801F80A0030B4
:101AB4008C313F248D31D230F8000030F9008B3165
:101AC4004B238D31080072080319692D6A2D6F2D7F
:101AD4007208031D6E2D6F2D742D70088A31222219
:101AE4008D31B62D7208083E860087011600010468
:101AF40003197D2D7E2D9C2D7208083E86008701DA
:101B0400403FF300413FF4007208023E8600870123
:101B1400403FF500413FF6007608803AF70074082C
:101B2400803A7702031D982D7308750203189B2DC4
:101B34009C2DB62D7008F300720886008701720888
:101B4400023E8400850100080107F4007408860041
:101B54008701730881007208023E86008701013004
:101B6400810741310318810A08002000AB002100DD
:101B74004C1CBD2DBE2DC72D20002B08FC007C085D
:101B8400F80024088C3116248D312000A61BCB2D9F
:101B9400CC2DD12D2608AA002508A900D32DA901F2
:101BA400AA01A701A801E72D2030F0000030F100C0
:101BB40020002B08FC007C08F2008D3165258D3156
:101BC40001302000A7070030A83D2808803AFC0017
:101BD4002A08803A7C02031DF12D29082702031CE0
:101BE400F42DF52DD62D21004C18F92DFA2D032EA8
:101BF40020002B08FC007C08F80024088C311624F3
:101C04008D31200024088B3131238D3120002908A7
:101C14007007A4002A08713DA50008008B31EE234B
:101C24008E3102302000E8008830E90021002C08C1
:101C3400B000B10130082000EA0021003108200082
:101C4400EB0021002D08B200B30132082000EC00A3
:101C5400210033082000ED00D2308B31CA238E31AD
:101C6400F80100308C313F248E31D230F80000303E
:101C7400F9008B314B238E3102302000E80088308C
:101C8400E90021002E08B000B10130082000EA006C
:101C9400210031082000EB0021002F08B200B3011D
:101CA40032082000EC00210033082000ED00D2307F
:101CB4008B31CA238E31F801F80A00308C313F246D
:101CC4008E31D230F8000030F9008B314B238E3145
:101CD40008008B31EE238E3121003008B400B501A9
:101CE4002F08B600B7013608F0003708F1003C3081
:101CF400F2000030F3008B3168238E312100340868
:101D04007007B8003508713DB9003308B400B50157
:101D14003208B600B7013608F0003708F1003C304D
:101D2400F2000030F3008B3168238E312100340837
:101D34007007BA003508713DBB0002302000E8008E
:101D44008830E90021003208B400B50134082000CD
:101D5400EA00210035082000EB0021003308B6001A
:101D6400B70136082000EC00210037082000ED0000
:101D7400D2308B31CA238E31F80100308C313F24AC
:101D84008E31D230F8000030F9008B314B238E3184
:101D940030302000E8008830E900210038083A0299
:101DA4002000EA00210039083B3B2000EB00D23040
:101DB4008B31CA238E31F801F80A00308C313F246C
:101DC4008E31D230F8000030F9008B314B238E3144
:101DD400080079082000A000A1012008A40021081F
:101DE400A5007A08A000A1012008A6002108A700E8
:101DF40012307902031CFF2E002F042F2100D00182
:101E0400D00A132F11307906031D092F0A2F112F21
:101E140014307A02031C0F2F102F112F002F2100D2
:101E2400D00150080319172F182F422F200025081E
:101E3400F1002408F0005430F2000630F3008B3136
:101E440068238E3170082000A0007108A1002708C3
:101E5400F1002608F0001B30F2000030F3008B3153
:101E640068238E31700820002007A2007108213DEC
:101E7400A3002208503EF6009230233DF7006B2F5A
:101E840020002508F1002408F0005430F200063048
:101E9400F3008B3168238E3170082000A000710894
:101EA400A1002708F1002608F0001B30F2000030E2
:101EB400F3008B3168238E31700820002007A200C4
:101EC4007108213DA3002208283EF600C930233DB5
:101ED400F70008002000A201A301A001A101762FB0
:101EE4000130F6070030F73D760884007708850056
:101EF4001200203A03197F2F802F722F7608840056
:101F0400770885000008F73EF800FF30031800301A
:101F1400F90000307902053003197802031C932F6D
:101F2400942F722F9F2F01302000A0000030A100B9
:101F34000130F6070030F73DD42F76088400770887
:101F440085000008F800F9017908003A0319AB2F5D
:101F5400D42F78082B3A03199A2F063A0319952F90
:101F6400D42F76088400770885000008F800200044
:101F74002308F1002208F0000A30F2000030F300D8
:101F84008B3168238F317108FA0078087002F900E8
:101F9400031CFA037908303E2000A20000307A3D89
:101FA400A3009A2F76088400770885000008D03EA5
:101FB400F800FF3003180030F900003079020A30CD
:101FC40003197802031CE72FE82FB32F2000200801
:101FD4002104031DEE2FEF2FFB2F2209F800230904
:101FE400F900F80A0319F90A7808F6007908F700E5
:0C1FF400FF2F2308F7002208F600080069
:020000040001F9
:04000E00E43FFF1EAE
:00000001FF
