:020000040000FA
:10000000803102288731CA2F08008B31E8238031E4
:1000100002302100A0008830A1002D082000EB0054
:10002000EC016B082100A20020006C082100A30055
:100030002E082000ED00EE016D082100A400200034
:100040006E082100A500D0308B31C2238031F80129
:1000500000308C3139248031D030F8000030F90084
:100060008B314323803102302100A0008830A10071
:100070002F082000EB00EC016B082100A2002000FB
:100080006C082100A30030082000ED00EE016D088F
:100090002100A40020006E082100A500D0308B3183
:1000A000C2238031F801F80A00308C3139248031C4
:1000B000D030F8000030F9008B3143238031080044
:1000C0002000A701A801A001A1016A280130F607BC
:1000D0000030F73DA601A60A76088400770885005F
:1000E0001200203A0319752876288B287608840098
:1000F000770885000008F73EF800FF30031800304D
:10010000F90000307902053003197802031C8928B0
:100110008A288B28A6012608F800F9017808A20091
:100120007908A30022082304031D9728982866282D
:10013000A2280130A0000030A1000130F6070030F5
:10014000F73DD62876088400770885000008F80077
:10015000F9017908003A0319AE28D62878082B3A15
:1001600003199D28063A03199928D6287608840091
:10017000770885000008F8002808F1002708F0003B
:100180000A30F2000030F3008B31602380317108B7
:10019000FA0078087002F900031CFA037908303E6F
:1001A0002000A70000307A3DA8009D287608840032
:1001B000770885000008D03EF800FF3003180030B3
:1001C000F900003079020A3003197802031CE9288B
:1001D000EB280130EC280030FA00FB017A08A4007B
:1001E0007B08A50024082504031DF728F828B62855
:1001F00020082104031DFD28FE280A292709F800EC
:100200002809F900F80A0319F90A7808F6007908AC
:10021000F7000E292808F7002708F60008008A31A1
:100220002D228131243024008D00210095131330BC
:1002300024009A0028309D009E019C018231CA2230
:1002400081318A316F228131F80100308C313924BB
:10025000813115302100B9003908BF000330B900E1
:100260003908C000C101C10A1530B9003908C200FF
:100270002E30B9003908C300C401CD01CE01BF3012
:100280008C31CC2481311A302100B900F830890B2F
:100290004729B90B47290000BD30F6000030F700B0
:1002A00021004208B9003908F8004308BA003A08AA
:1002B000F9008F3161278131BB30F6000030F70043
:1002C00021003D08B9003908F8003E08BA003A0894
:1002D000F9008F316127813121004408031D712904
:1002E00072297E293E08AE003D08AD003C08B000F2
:1002F0003B08AF008031052081313F291E30440684
:10030000031D83298429A029BF308600003087007F
:10031000AD30840000308500403F803F413F813F49
:10032000423F823F433F833F443F843F453F853FB9
:100330003E08B4003D08B3008E31DA2681313F29F2
:100340002D304406031DA529A6293F29BF3086006C
:10035000003087007630840000308500403F803FC9
:10036000413F813F423F823F433F833F443F843F81
:10037000453F853F8E315926813177082100CE00D7
:100380007608CD00BF30860000308700AD30840095
:1003900000308500403F803F413F813F423F823FE8
:1003A000433F833F443F843F453F853F4E08B40071
:1003B0004D08B3008D31122581313F29803102284B
:1003C000F2012830860000308700473FF000F01F20
:1003D000EA29EB290C2A2000A809A909AA09AB09D6
:1003E000AC09AD09AE09AF09A80A031D0A2AA90A7A
:1003F000031D0A2AAA0A031D0A2AAB0A031D0A2A98
:10040000AC0A031D0A2AAD0A031D0A2AAE0A031DFF
:100410000A2AAF0AF201F20A203086000030870073
:10042000473FF000F01F152A162A352A2000A009A0
:10043000A109A209A309A409A509A609A709A00A57
:10044000031D352AA10A031D352AA20A031D352AD8
:10045000A30A031D352AA40A031D352AA50A031D74
:10046000352AA60A031D352AA70A200020082104E0
:100470002204230424042504260427040319412A02
:10048000422A952AF101F10A512AA035A10DA20DA7
:10049000A30DA40DA50DA60DA70D0130F000700849
:1004A000F107A71F542A552A452A27082F02031DA2
:1004B000732A26082E02031D732A25082D02031D08
:1004C000732A24082C02031D732A23082B02031D00
:1004D000732A22082A02031D732A21082902031DF8
:1004E000732A20082802031C762A772A872A2008E4
:1004F000A8022108A93B2208AA3B2308AB3B2408F9
:10050000AC3B2508AD3B2608AE3B2708AF3BA736E2
:10051000A60CA50CA40CA30CA20CA10CA00C0130E1
:10052000F102031D942A952A552A72080319992A63
:100530009A2AB82AA809A909AA09AB09AC09AD09E0
:10054000AE09AF09A80A031DB82AA90A031DB82AD3
:10055000AA0A031DB82AAB0A031DB82AAC0A031D58
:10056000B82AAD0A031DB82AAE0A031DB82AAF0A7D
:1005700020002808A0002908A1002A08A2002B08B2
:10058000A3002C08A4002D08A5002E08A6002F0803
:10059000A70008000530F3000F30F200F130890B9E
:1005A000CF2AF20BCF2AF30BCF2A000030308A314A
:1005B0008D22823134308A318D22823130308A313D
:1005C0008D2282310D30F200FC30890BE52AF20BCE
:1005D000E52A30308A318D22823134308A318D22C1
:1005E000823130308A318D2282310D30F200FC3080
:1005F000890BF82AF20BF82A30308A318D228231A9
:1006000034308A318D22823130308A318D228231EC
:10061000C830890B092B20308A318D228231243059
:100620008A318D22823120308A318D22823106300A
:10063000890B182B003220308A318D2282312430F0
:100640008A318D22823120308A318D2282314230AE
:10065000890B282B003280308A318D228231843000
:100660008A318D22823180308A318D228231003070
:100670008A318D22823104308A318D2282310030DC
:100680008A318D2282314230890B442B0032C030B6
:100690008A318D228231C4308A318D228231C0303C
:1006A0008A318D22823100308A318D2282310430AC
:1006B0008A318D22823100308A318D22823142305E
:1006C000890B602B003210308A318D228231143038
:1006D0008A318D22823110308A318D2282310D3063
:1006E000F200FC30890B722BF20B722B00308A3136
:1006F0008D22823104308A318D22823100308A315C
:100700008D2282314230890B832B003260308A3156
:100710008D22823164308A318D22823160308A317B
:100720008D22823100308A318D22823104308A312B
:100730008D22823100308A318D2282314230890B04
:100740009F2B003220308A318D22823124308A3131
:100750008D22823120308A318D2282310830F200A0
:10076000CA30890BB12BF20BB12B0800F2012030FB
:10077000860000308700473FF000F01FC02BC12BE0
:10078000E22B2000A009A109A209A309A409A50937
:10079000A609A709A00A031DE02BA10A031DE02B4F
:1007A000A20A031DE02BA30A031DE02BA40A031DCC
:1007B000E02BA50A031DE02BA60A031DE02BA70AC8
:1007C000F201F20A2830860000308700473FF0002F
:1007D000F01FEB2BEC2B0F2C2000A809A909AA096C
:1007E000AB09AC09AD09AE09AF09A80A031D0B2C72
:1007F000A90A031D0B2CAA0A031D0B2CAB0A031D0F
:100800000B2CAC0A031D0B2CAD0A031D0B2CAE0ADE
:10081000031D0B2CAF0A0130F0007008F206733094
:100820008600003087000830F00000301E00F00B1A
:10083000162C20002008210422042304240425046B
:10084000260427040319252C262C822CF101F10AF9
:10085000352CA035A10DA20DA30DA40DA50DA60D3F
:10086000A70D0130F0007008F107A71F382C392CB4
:10087000292CF335F40DF50DF60DF70DF80DF90DE6
:10088000FA0D27082F02031D5F2C26082E02031DD8
:100890005F2C25082D02031D5F2C24082C02031D4C
:1008A0005F2C23082B02031D5F2C22082A02031D44
:1008B0005F2C21082902031D5F2C20082802031C3D
:1008C000622C632C742C2008A8022108A93B220862
:1008D000AA3B2308AB3B2408AC3B2508AD3B2608CC
:1008E000AE3B2708AF3B7314A736A60CA50CA40C8F
:1008F000A30CA20CA10CA00C0130F102031D812C51
:10090000822C392C72080319862C872CA52CF3090C
:10091000F409F509F609F709F809F909FA09F30ADA
:10092000031DA52CF40A031DA52CF50A031DA52CF7
:10093000F60A031DA52CF70A031DA52CF80A031DB2
:10094000A52CF90A031DA52CFA0A73082000A000A3
:100950007408A1007508A2007608A3007708A40017
:100960007808A5007908A6007A08A70008002000EA
:10097000BD003008C4003108C5003208C600330885
:10098000C7003408C8003508C9003608CA0037084F
:10099000CB004430860000308700473FB800B81BCA
:1009A000D22CD42C0130D52C00302000B900BA0153
:1009B0003908C2003A08C300420843040319E12C75
:1009C000E22C002DC409C509C609C709C809C9090F
:1009D000CA09CB09C40A031D002DC50A031D002D39
:1009E000C60A031D002DC70A031D002DC80A031DDA
:1009F000002DC90A031D002DCA0A031D002DCB0AB4
:100A00002100CA1B042D052D092DFD30CB05FF301B
:100A1000CC054A08803A2000B80080303802031D17
:100A2000142D0130210049020318172D182D1E2DF9
:100A300001302000BE000030BF00262D21004A08F2
:100A40002000BF00210049082000BE002100480806
:100A50002000C100210047082000C00042084304D4
:100A6000031D332D342D392D21004B1D382D392DEB
:100A70003E2DFF302000C007FF30C13D1F30200059
:100A8000CC000030CD002200BF01AF2DFF30200090
:100A9000CC07FF30CD3D0A30A000A101A201A30187
:100AA000A401A501A601A7014408A8004508A900C2
:100AB0004608AA004708AB004808AC004908AD004A
:100AC0004A08AE004B08AF008131E021843120009C
:100AD0002108F4002008F3008B310F2384317308C0
:100AE000303E2000B8004C08203E860001308700D0
:100AF00038088100FF30BE07FF30BF3DFF30C00720
:100B0000FF30C13D0A30A000A101A201A301A40150
:100B1000A501A601A7014408A8004508A9004608A8
:100B2000AA004708AB004808AC004908AD004A08D5
:100B3000AE004B08AF008331B6238431200020087B
:100B4000C4002108C5002208C6002308C7002408E5
:100B5000C8002508C9002608CA002708CB002000C5
:100B60004D08803AB80080303802031DB92D01309D
:100B70004C02031CBC2DBD2DEA2D20004408450469
:100B800046044704480449044A044B04031DC92D84
:100B9000CA2D462D3F08803AB80080303802031D28
:100BA000D32D01303E020318D62DD72D462D20001F
:100BB0004108803AB80080303802031DE12D013031
:100BC0004002031CE42DE52DEA2D2100CB18E92D70
:100BD000EA2D462D200042084304031DF02DF12D7F
:100BE000F62D21004B1DF52DF62D132EFF30200084
:100BF000CC07FF30CD3D42084304031D002E012EDB
:100C0000062E2B30BB000030BC000A2E2D30BB005E
:100C10000030BC003B08B8004C08203E8600013084
:100C200087003808810020004C08203EB8003808B2
:100C3000A4004108A6004008A5003D088E3100260A
:100C4000843120002508B1002408B00008002000ED
:100C5000E2004E0886008701403FD000413FD100AE
:100C600050088400510885001200253A031D392ED2
:100C70003A2EA62F4E0886008701013081074131A8
:100C80000318810A2100C701C801CB01CC01FF3044
:100C9000C900FF30CA002000DE01DF01902E2100D4
:100CA0004B1420004E088600870101308107413136
:100CB0000318810A902E2100CB14512E21004B15D0
:100CC000512E2100CB15512E21004B16512E0130F3
:100CD000DE000030DF00902E4E0886008701403F86
:100CE000D000413FD1005008840051088500000821
:100CF000D200D3015308003A03197F2E672E520801
:100D0000203A0319612E033A0319642E083A031995
:100D10005E2E063A03194F2E1D3A03195B2E672EDD
:100D20005E085F040319952E962E6C2E21004B1C35
:100D30009A2E9B2E9F2EFD30CB05FF30CC05200038
:100D40004E0886008701403FD000413FD100500847
:100D500084005108850012002A3A031DB02EB12EDE
:100D6000D12E4E08860087010130810741310318DA
:100D7000810A4F088600870101088400850102303E
:100D80008107003F2100C700013FC800C81FC92ECE
:100D9000CA2E132F4B14C709C809C70A0319C80A5A
:100DA000132F4E0886008701403FF600413FF700B1
:100DB00080316020863177082100C8007608C7009E
:100DC000E92E4E0886008701013081074131031862
:100DD000810A20004E0886008701403FD000413F35
:100DE000D10050088400510885000008D03ED20090
:100DF000FF3003180030D300003053020A300319CB
:100E00005202031C042F062F0130072F0030D4009C
:100E1000D5015408E0005508E10060086104031D95
:100E2000122F132FE12E20004E0886008701403F2D
:100E3000D000413FD10050088400510885001200C5
:100E4000643A0319242F252F362F4E088600870178
:100E5000403FD000413FD100500884005108850038
:100E60001200693A031D352F362F712F4E08860068
:100E700087010130810741310318810A4F0886003C
:100E8000870101088400850102308107003FD000FE
:100E9000013FD1005008D6005108D700890D893B89
:100EA0008909D800D900DA00DB00DC00DD00560833
:100EB000B0005708B1005808B2005908B3005A08EA
:100EC000B4005B08B5005C08B6005D08B7006208B6
:100ED0008431B724863120003108CF003008CE009D
:100EE000C92F4E0886008701403FD000413FD10006
:100EF00050088400510885001200253A031D812FF7
:100F0000822F9B2F4E0886008701013081074131D7
:100F10000318810A2530F0000030F1006208D0008B
:100F20005008F2008D315B25863101302000CE0063
:100F30000030CF00C92F4E0886008701013081079D
:100F400041310318810ACE01CF01C92F4E08860016
:100F50008701403FD000413FD10050088400510834
:100F600085000008D200D3015208F0005308F100B8
:100F70006208D4005408F2008D315B2586312000D0
:100F80004E08860087010130810741310318810A2C
:100F9000952F0800AA3084008D3085001A30860015
:100FA000213087000030FF0056308A3163228731BC
:100FB0001B3084008A308500E030860000308700D6
:100FC0000030FF0004308A3163228731EF01C530E1
:100FD0008400003085001B30FE000030FF008A31A5
:100FE0005722873120308400013085002030FE00F8
:100FF0000030FF008A3157228731200081310F29CC
:10100000113400344B34573420343E3420344D34C2
:101010005434203425343034323464343A34253472
:101020003034323464340034543469346D346534CB
:1010300020343A3425343034323464343A3425346C
:1010400030343234643400344D346F346E346534AB
:1010500079343A3425346434593445344E340034C8
:101060002534643420346D3469346E3420346C3467
:101070006534663474340034543406341B3400341C
:0410800020340034E4
:10142E001630210097000800003440341434543430
:10143E0070302100990098012200960108002400C6
:10144E001E151E192B2A2C2A282A08008A31CA2278
:10145E008A318A311F228A318A3117228A31080055
:10146E008A314B228A3124001E141E183F2A402A2C
:10147E003C2A08008A314B228A3124009E149E1881
:10148E00492A4A2A462A080024001E081F39031D2D
:10149E00512A522A4B2A1C19552A562A4B2A080021
:1014AE006400800101310130FE020030FF3B7F08F5
:1014BE007E04031D582A0034FE0012001E00013067
:1014CE00FE020030FF3B7F087E04031D642A0034B9
:1014DE0008308A318D228A310830F20072082000DD
:1014EE00EF000630890B792A00320800F0007008F0
:1014FE00240099001C18842A852A812A1E1B882AFA
:10150E00892A852A8A314B228A310800F1008A31D4
:10151E0037228A317E308A317D228A3171088A31B2
:10152E007D228A318A3126228A310630890B9D2A04
:10153E0000320800F7000F307705F4000A30F5008E
:10154E007508F0007708F6000430F636890BAC2AE1
:10155E0076088A31B5228A3174070800F300F20149
:10156E00731CBA2ABB2ABF2A7008F1007108F20751
:10157E000310F00D0310F30C7308031DC72AC82ABD
:10158E00B72A7208080022008C018D01FF3021005D
:10159E008C00FF308D00FE3023008D001F308C003C
:1015AE0024008D018C012100951722009D019E01C2
:1015BE000800F100710C2400031C9E1203189E16E5
:1015CE009E151C1CEB2AEC2AE82A1E161908F000A0
:1015DE007008F2001D138A314B228A3172080800FE
:1015EE007008D03EF200FF30713DF3000030730200
:1015FE000A3003197202031C052B072B0130082B2E
:10160E000030F400F5017408F0007508F1000800D0
:10161E007408803AF50080307502031D182B0130D6
:10162E00730203181B2B1C2B282B7309F50074094E
:10163E00F600F50A0319F60A7508F3007608F400A9
:10164E00282B0800F4007408F2007208F300332B04
:10165E000130F2007208F40774088600013087002A
:10166E000108031D3B2B3C2B2F2B73087402F0003B
:10167E00F101F01BF1030800562B7808840079085D
:10168E0085000008FA007A08FB000130F8070030E8
:10169E00F93DF201F20A7B088C3194248B317808E3
:1016AE008400790885001200031D5E2B5F2B442BEE
:1016BE000800F401F501701C652B662B6A2B72086D
:1016CE00F4077308F53D0130F235F30D890B6B2BE2
:1016DE000130F136F00C890B702B70087104031D6C
:1016EE00792B7A2B622B7508F1007408F000080034
:1016FE00F401F40A2030700671040319872B882B2D
:10170E00982B7008F73EF200FF30713DF300003069
:10171E007302053003197202031C962B972B982B1C
:10172E00F4017408F200F3017208F0007308F1007E
:10173E000800F9008A3137228B31D0308A317D2270
:10174E008B3179088A317D228B318A3141228B315E
:10175E00D1308A317D228B3101308A31E0228B31BA
:10176E008A31A1228B31F8007808FA008A312622BC
:10177E008B317A0808002100A700A230FD007D08F9
:10178E00A6002708FD007D08A800A901AA01AB014B
:10179E00AC0121082000E400210020082000E30015
:1017AE00A630FD007D08E500A8308C3163248B3116
:1017BE00210029082707FD007D0886008701810189
:1017CE0008002000A601A7012608FC007C08F800EE
:1017DE0027088C3139248B314030F8008830F900DD
:1017EE008B3143238B310130FC007C082000A7078E
:1017FE0010302702031C042C052CEB2B0130FC00AF
:10180E007C08A60702302602031C0E2C0F2CEA2B96
:10181E0008002000A300A101A201282C2008F90035
:10182E00FA017908F0007A08F1007808FB007B08CD
:10183E00F2008D315B258C3101302000A107003084
:10184E00A23D21082307F9007908860001308700A0
:10185E000108FA007A08A0002008031D372C382C46
:10186E00152C08002000A400210063082000A3000E
:10187E00210062082000A200210061082000A100C2
:10188E00210060082000A00003307802031C502CB9
:10189E00512C532CF801F80A7808203E8600870157
:1018AE00010824078038F9007908A500F2012508FF
:1018BE008C3194248C3108002000E8006408EA0082
:1018CE006308E9002100C501C601812C6930E600DC
:1018DE006608CE006508E7006708CF006808863105
:1018EE0027268C3120004E082100C50720004F0806
:1018FE002100C63D2000690884006A088500120098
:10190E00031D8A2C8B2C6D2C210046082000E40030
:10191E00210045082000E3000800F5007508F039A5
:10192E0020006F047204F3007308F6007508F300CC
:10193E000330F335FF3E031DA02C7335F0396F04D1
:10194E007204F4007408F70076088A318D228C3107
:10195E00760804388A318D228C317608FB398A312B
:10196E008D228C314230890BBA2C003277088A31A5
:10197E008D228C31770804388A318D228C3177088C
:10198E00FB398A318D228C310800FC0006308B31F8
:10199E00A0238C31FB007C08860087017B08810028
:1019AE0005308B31A0238C31FB007C0A8600870129
:1019BE007B08810004308B31A0238C31FB007C0826
:1019CE00023E860087017B08810003308B31A02305
:1019DE008C3102308B31A0238C31FB007C08033E0E
:1019EE00860087017B08810001308B31A0238C316A
:1019FE00FB007C08043E860087017B0881000030D6
:101A0E008B31A0238C31FB007C08053E86008701BC
:101A1E007B08810008008B31E8238D3114302100C2
:101A2E00A0008830A10030082000EB00EC016B080C
:101A3E002100A20020006C082100A3003108200024
:101A4E00ED00EE016D082100A40020006E082100BB
:101A5E00A500D0308B31C2238D31F80100308C318E
:101A6E0039248D31D030F8000030F9008B3143230A
:101A7E008D3124302100A0008830A1003408A3004D
:101A8E003308A200D0308B31C2238D31F801F80A11
:101A9E0000308C3139248D31D030F8000030F9000F
:101AAE008B3143238D310800720803195F2D602D91
:101ABE00652D7208031D642D652D6A2D7008803109
:101ACE0004208D31A92D7208033E86008701160071
:101ADE0001040319732D742D912D7208033E860097
:101AEE008701403FF300413FF400720A86008701F0
:101AFE00403FF500413FF6007608803AF700740843
:101B0E00803A7702031D8D2D730875020318902DF0
:101B1E00912DA92D7008F300720886008701720AB4
:101B2E008400850100080107F4007408860087010F
:101B3E0073088100720A86008701013081074131E6
:101B4E000318810A080006340F3406343134073482
:101B5E0019340734313408340D340834253409343B
:101B6E00013409341934093431340A340D340A3449
:101B7E0025340B3401340B3419340B3431340C341A
:101B8E000D340C3425340D3401340D3419340D3428
:101B9E0031340E340D340E3425340F3401340F34F9
:101BAE0019340F34313410340D34103425341134CB
:101BBE0001341134193411342534113431341234C2
:101BCE0001341234253412343134133401341334C5
:101BDE001934133425341334313414340D3414348D
:101BEE002534153401341534183415343034163484
:101BFE0012342000AB0021004B1C062E072E102E97
:101C0E0020002B08FC007C08F80024088C311024DE
:101C1E008E312000A61B142E152E1A2E2608AA0071
:101C2E002508A9001C2EA901AA01A701A801302E82
:101C3E002030F0000030F10020002B08FC007C0862
:101C4E00F2008D315B258E3101302000A707003068
:101C5E00A83D2808803AFC002A08803A7C02031D21
:101C6E003A2E29082702031C3D2E3E2E1F2E210040
:101C7E004B18422E432E4C2E20002B08FC007C08C5
:101C8E00F80024088C3110248E31200024088B316A
:101C9E0029238E31200029087007A4002A08713DDF
:101CAE00A500080079082000A000A1012008A400CA
:101CBE002108A5007A08A000A1012008A60021088D
:101CCE00A70012307902031C6D2E6E2E722E21008B
:101CDE00CF01CF0A812E11307906031D772E782E73
:101CEE007F2E14307A02031C7D2E7E2E7F2E6E2EBA
:101CFE002100CF014F080319852E862EB02E20000D
:101D0E002508F1002408F0005430F2000630F300EC
:101D1E008B3160238E3170082000A0007108A10065
:101D2E002708F1002608F0001B30F2000030F30007
:101D3E008B3160238E31700820002007A2007108BD
:101D4E00213DA3002208503EF6009230233DF700BD
:101D5E00D92E20002508F1002408F0005430F2009E
:101D6E000630F3008B3160238E3170082000A00006
:101D7E007108A1002708F1002608F0001B30F200C0
:101D8E000030F3008B3160238E3170082000200765
:101D9E00A2007108213DA3002208283EF600C9309A
:101DAE00233DF70008008B31E8238E3121003108E6
:101DBE002000EB00EC01210030082000ED00EE01C8
:101DCE006D08F0006E08F1003C30F2000030F300B8
:101DDE008B3160238E3120006B0870072100B50017
:101DEE0020006C08713D2100B60034082000EB0085
:101DFE00EC01210033082000ED00EE016D08F0002B
:101E0E006E08F1003C30F2000030F3008B3160239D
:101E1E008E3120006B0870072100B70020006C087F
:101E2E00713D2100B8000230A0008830A1003308B7
:101E3E002000EB00EC016B082100A20020006C08D2
:101E4E002100A30034082000ED00EE016D082100F2
:101E5E00A40020006E082100A500D0308B31C223D3
:101E6E008E31F80100308C3139248E31D030F800AB
:101E7E000030F9008B3143238E3130302100A00029
:101E8E008830A10035083702A2003608383BA3007F
:101E9E00D0308B31C2238E31F801F80A00308C31EC
:101EAE0039248E31D030F8000030F9008B314323C5
:101EBE008E3108002000B0017908A000A101780839
:101ECE00A200A3012208F0002308F1003C30F2002A
:101EDE000030F3008B3160238F3120002008700713
:101EEE00AC002108713DAD00B1013108A000A10187
:101EFE00A035A10D1B30A2002130A300200822071F
:101F0E0086002108233D87000108A400A5013108A1
:101F1E00A600A701A635A70D1A30A8002130A900EA
:101F2E002608280786002708293D87000108AA00F1
:101F3E00AB012A08F0002B08F1003C30F200003013
:101F4E00F3008B3160238F31200024087007AE0020
:101F5E002508713DAF002F082D02031DB82F2E0846
:101F6E002C020318BB2FBC2FC12F3108A000200854
:101F7E00B000CB2F0130A0002008B1072B3031026A
:101F8E00031CCA2FCB2F7C2F3008A000A101A03537
:101F9E00A10D1A30A2002130A300200822078600CE
:101FAE002108233D87000108A400760886007708E3
:101FBE008700240881003008A000A101A035A10DE2
:101FCE001B30A2002130A300200822078600210822
:101FDE00233D87000108A4007608013EA5000030CD
:101FEE00773DA60025088600260887002408810074
:021FFE000800D9
:020000040001F9
:04000E00E43FFF1EAE
:00000001FF
